:1000000012C02BC02AC029C028C027C026C025C0C6
:1000100024C023C022C021C020C01FC01EC01DC0DC
:100020001CC01BC01AC011241FBECFE5D4E0DEBF28
:10003000CDBF10E0A0E6B0E0E6E9F0E002C0059038
:100040000D92A036B107D9F710E0A0E6B0E001C0EC
:100050001D92A036B107E1F710C0D2CFAC0120E06D
:1000600030E0E0EFF0E005C0CF010197F1F72F5F3E
:100070003F4F24173507C1F70895CFE5D4E0DEBF21
:10008000CDBFA59AAD9884EF91E0E8DFAD9A84EFFB
:0600900091E0E4DFF7CF70
:00000001FF
