:10000000ACC0C5C0C4C0C3C0C2C0C1C0C0C0BFC0F6
:10001000BEC0BDC0BCC0BBC0BAC0B9C0B8C0B7C00C
:10002000B6C0B5C0B4C008C117C12DC161C460C499
:1000300057C147C25DC45CC45BC45AC459C458C4E8
:1000400057C456C483C1EAC1ECC1F3C0EFC00BC2B0
:100050008FC3E3C3F5C3E1C3F3C3F2C3F1C310C459
:1000600021C136C145C444C443C442C441C440C490
:100070003FC43EC43DC43CC43BC43AC439C438C484
:1000800029C112C114C134C415C116C123C120C174
:1000900015C12EC407C12CC42BC404C111C113C186
:1000A0001B5B306D1B5B324A1B5B303B3066005282
:1000B000656164792E204A75737420636C6F736573
:1000C00020746865207465726D696E616C2E204EB7
:1000D0006F207265736574206E65656465642E0DAE
:1000E0000A000D0A000D0A4F4B2C206D7920535742
:1000F0002076657273696F6E206973206E6F773A30
:1001000020005D3A2000456E7465722053572056DA
:10011000657273696F6E204D696E6F72205B005D52
:100120003A2000456E7465722053572056657273ED
:10013000696F6E204D616A6F72205B004176725567
:1001400073623530302D312E34207465726D696ED6
:10015000616C206D6F64650D0A0011241FBECFE530
:10016000D4E0DEBFCDBF10E0A0E6B0E0E4E2FFE007
:1001700002C005900D92AC36B107D9F711E0ACE69C
:10018000B0E001C01D92AF39B107E1F773C438CFB9
:10019000A0E0B0E0EDECF0E071C6182F7B01CB01E0
:1001A00001978D51914030F080EC8093760022E0F1
:1001B000E22EF12C8BE11CD5812F1AD59BE1D92E93
:1001C000D1268F2D9927182F13D5D1268E2D10D5F6
:1001D000DE248EE00DD58EE0D82618D600E010E0A3
:1001E000C5E7D0E006C0888103D58991D8260F5F86
:1001F0001F4F0E151F05B8F38D2DFAD4E7E0CDB7CC
:10020000DEB758C6A0E0B0E0E7E0F1E02FC6582E18
:10021000809175009927AA27BB27FC013197ED3102
:10022000F10508F065C3ED5EFF4F0994A1E0DA2EF9
:10023000A0C2F1E08F2E18C181E08093750010926A
:10024000760088E08093770061E670E088E790E0D0
:10025000DFD56BE070E051C380917600883921F4DE
:1002600080917700F2D46FC08E3929F480917700A5
:100270008093600068C08F3909F065C08091770075
:100280008093740060C0809176009927AA27BB27CD
:10029000FC01E058F040E032F10508F029C3E05DD0
:1002A000FF4F099480E017C080919D010EC080919E
:1002B0009E010BC082E30FC089E10DC0FDD405C0D3
:1002C0008091600002C0809174008F3F21F410C3C0
:1002D00081E001C082E01092760080937700ADC289
:1002E00020917600332744275527522F4427332760
:1002F0002227809177009927AA27BB27DC0199271D
:100300008827282B392B4A2B5B2B80917800992743
:10031000AA27BB27BA2FA92F982F8827282B392B3C
:100320004A2B5B2B809179009927AA27BB27282B82
:10033000392B4A2B5B2B2093700030937100409334
:1003400072005093730010927600D5C2A898B8D46A
:1003500080917700992741D580EC80937600809139
:100360007900813218F080E28093790080917A00E0
:10037000833018F0C0E0D0E049C083E080937A0079
:10038000F9CF44D5A898219680917D00C2D4809160
:100390007A00992722D580917E00BBD480917A0083
:1003A00099271BD5A89A80917F00B3D4182F8091EC
:1003B0007A00992712D580918000ABD4082F8091C4
:1003C0007A0099270AD580917C00833051F480917E
:1003D0007B00181711F41092760080917C00833016
:1003E00031F080917B00081711F410927600809113
:1003F0007C00882311F41092760080917600882387
:1004000029F4A89880917900C82FDD278091790080
:100410009927C817D90708F4B4CF6DC271D4A89A28
:1004200092CF8091780075D48091790072D48091B8
:100430007A006FD480917B006CD480917700882300
:1004400011F016E906C0809176009927C6D47BCFBB
:10045000115060E070E080E090EF97D480FF73CFA0
:100460001123B1F770CF882480917900833018F47C
:1004700083E08093790080917900893118F088E1D8
:10048000809379008091700090917100A09172002A
:10049000B091730080936C0090936D00A0936E00F8
:1004A000B0936F00809176009927B82EAA2480918E
:1004B00077009927A82AB92A89E1A81681E0B80609
:1004C00010F080EC16C2A2D46090780060FE0AC0E2
:1004D000EE24FF248701C0E0D0E08FE7C82E80E043
:1004E000D82EE8C0EE24FF248701C0E0D0E016E952
:1004F000912E7724BFE7CB2EB0E0DB2E8AC0882078
:1005000031F0C0FF04C080917A00886002C0809101
:100510007A00FFD3809170009091710052D4D6017F
:100520008C91F7D390917D00F6018081981799F016
:10053000E0907000F09071000091720010917300D3
:100540008FEF9FEFA0E0B0E0E822F9220A231B23FF
:100550006092780003C082E08093780057D48820AE
:1005600019F481E090E039D480917800992782FFD6
:100570001DC090917D00A6E99A2E11C0882031F00F
:10058000C0FF04C080917C00886002C080917C0024
:10059000C0D3C70116D480E0BCD3982F9A94809121
:1005A0007D009817B9F4992049F714C083FF0EC055
:1005B000F6E99F2E01C09A9460E070E080E090EF31
:1005C000E4D380FF07C09920B1F704C0809179007F
:1005D000992703D4882011F0C0FF13C080917000C8
:1005E00090917100A0917200B09173000196A11DCD
:1005F000B11D8093700090937100A0937200B0932E
:100600007300992011F4E0E87E2E21960894C11C15
:10061000D11CCA15DB0508F472CFA7C0F7D3882018
:1006200031F0C0FF04C080917A00886002C08091E0
:100630007A006FD38091700090917100C2D3D6017F
:100640008C9167D390917D00F6018081981789F095
:10065000E0907000F09071000091720010917300B2
:100660008FEF9FEFA0E0B0E0E822F9220A231B23DE
:1006700006C080917800807880618093780088201F
:1006800011F0C0FF13C08091700090917100A09193
:100690007200B09173000196A11DB11D809370008E
:1006A00090937100A0937200B09373002196089408
:1006B000C11CD11CCA15DB0508F4B0CFA7D38091AB
:1006C000780087FF51C080917B0023D380916C001C
:1006D00090916D0076D380E01CD3882019F481E0DE
:1006E00090E07BD380917800992785FF25C0E114A5
:1006F000F1040105110501F190917D0076E9D72EF5
:100700000FC0E0FE04C080917C00886002C0809130
:100710007C00FFD2C70155D380E0FBD2982FDA943A
:1007200080917D00981719F4DD2059F702C0DD2073
:10073000D9F460E8762E19C086FF12C016E901C010
:10074000115060E070E080E090EF1FD380FF03C0A5
:100750001123B1F702C0112339F451E8752E05C0F9
:1007600080917900992739D3772470927600C3C09D
:10077000DD24809176009927D82FCC2780917700AF
:100780009927C82BD92BC090780091E0C931D9079F
:1007900010F0C8E1D1E000E010E037E7E32E30E0F0
:1007A000F32E2FC033D3DD2029F000FF03C08C2DA2
:1007B000886001C08C2DADD2809170009091710045
:1007C00000D380E0A6D2D7018C93DD2011F000FF8A
:1007D00013C08091700090917100A0917200B0914F
:1007E00073000196A11DB11D80937000909371005C
:1007F000A0937200B09373000F5F1F4F0894E11C29
:10080000F11C0C171D0770F2BE016D5F7F4F109237
:100810007600CB58DF4F1A8270C08091760079D273
:100820008091770076D28091780073D280917900A0
:1008300070D2109276001092770063E070E05DC095
:1008400007E710E0C1E0D0E0F801808162D2282FF4
:100850008091760099278C179D0711F420937700DB
:1008600085E090E0BAD20F5F1F4F2196C530D105C9
:1008700059F7109276001092780064E070E03DC065
:1008800000917700F090780010E0C0E0D0E019C04F
:10089000EF1570F0101760F4FF27EB58FF4F8481BD
:1008A00038D2E12FFF27EB58FF4F82831F5F05C02F
:1008B000FF27EB58FF4F84812CD285E090E08DD24A
:1008C0002196EC2F80917600C81710F304C0EB58E6
:1008D000FF4F12821F5FE12FFF271017C0F3BF01E8
:1008E0006D5F7F4F10927600EB58FF4F128205C06C
:1008F00089EC8093760062E070E0852D49DCEFE0C2
:10090000CDB7DEB7CFC2EF92FF920F931F9388232C
:1009100019F002E0E02E02C011E0E12E81E085D165
:10092000182FB2E0FB2E0FEF14C0812F80538A30B6
:1009300068F40F3F09F400E0812F5AD18AE00802E1
:10094000C0011124012F080F0053FA9481E06DD1EA
:10095000182F1D3031F01A3021F0FF2031F710E050
:1009600005C0EA94FCCF81E060D111508E2D8195B5
:100970001817C9F7802F992787FD90951F910F9120
:10098000FF90EF9008958BE133D185E431D1089544
:100990001F93182F80EA90E03BD18CE391E038D18F
:1009A00083E291E035D180919D014AE050E065E716
:1009B00070E0992734D285E790E01ED18FE191E075
:1009C00027D1812FA0DF87FD02C080939D01DBDF4F
:1009D00086E091E01DD180919E014AE050E065E7FC
:1009E00070E099271CD285E790E006D182E091E083
:1009F0000FD1812F88DF87FD02C080939E01C3DF66
:100A000080919E01A1E0B0E0082E6CD280919D0102
:100A1000A2E0B0E0082E66D284E1A0E0B0E0082EAB
:100A200061D285EE90E0F4D080919D014AE050E0E3
:100A300065E770E09927F3D185E790E0DDD08EE29D
:100A4000D7D080919E018A3010F480E3D1D080917C
:100A50009E014AE050E065E770E09927E0D185E724
:100A600090E0CAD082EE90E0D3D08FEA90E0D0D070
:100A70001F910895CFE5D4E0DEBFCDBFB1D0BCD18A
:100A8000A09AA89A789484E080939E0182E0809353
:100A90009D01A0E0B0E01ED2802D843161F4A1E080
:100AA000B0E018D2802D80939E01A2E0B0E012D277
:100AB000802D80939D01BB24EE24FF2401C0BB2424
:100AC000AA24CC24DD24C0E0D0E081E0AED0182FF1
:100AD0008B3149F44BE1F42E01E074C0A8958A2DC6
:100AE00091DBF12EECCF00E01D3011F01A3001F552
:100AF0002196EE2049F41A3009F06BC08DE0B8164B
:100B000009F067C031E0E32EC430D10511F0B12EF9
:100B1000DCCF81E03DDFB12ED6CF80E039DFB12ED2
:100B2000EE24D1CF013021F4F12602E0A12E4AC0FB
:100B3000023039F4F126812F9927D82ECC2403E0F6
:100B400041C0033039F4F126812F9927C82AD92AC8
:100B500004E038C0043031F4F12605E01E3009F01D
:100B6000B4CF2EC00530C1F4CC15DD050CF0A7CFF5
:100B700081E0C831D8070CF0A2CFF126FE01EB5876
:100B8000FF4F10832196A89506E0CC15DD0511F4E2
:100B90006E0118C005E016C0063009F090CF1F1591
:100BA00021F41C141D040CF499CF80EB8093750084
:100BB00081EC8093760062E070E08A2DE9DA7FCFE5
:100BC000C0E0D0E080E031D0182F002309F48CCFB2
:100BD000A9CFC230D10509F4A0CFB12EEE2475CF34
:100BE00010BC81E089B988E18AB986E880BD0895A2
:100BF0005D9BFECF8CB90895CF93DF93EC0102C0CB
:100C0000F7DF219688818823D9F7DF91CF91089566
:100C1000CF93DF93EC0101C0EBDFFE0121968491BD
:100C20008823D1F7DF91CF9108951F93182F02C029
:100C30001111ECD05F9BFCCF8CB199271F910895C7
:100C400001C08CB15F99FDCF089510929C01843052
:100C500048F081E080939C018CE080936A008CE0F6
:100C600090E00895833041F47098699A689A80936F
:100C70006A0083E090E00895823048F07098699AA5
:100C8000689882E080936A0082E090E00895813065
:100C900031F470986998689A80936A0002C088233A
:100CA00019F081E090E00895709868986998109222
:100CB0006A0080E090E0089580916A009927089585
:100CC000C398C598BB9ABD9AC398C598BC98BA9A60
:100CD000C29A89E190E081D080919C01882311F42F
:100CE00081E58DB9C298C398C59889E190E075D027
:100CF00080919C01882319F480916A00A6DF0895F1
:100D00001DB8C29ABB98C398BD98C598BA98C298A6
:100D10000895982F80919C01882331F49FB9779B87
:100D2000FECF8FB199270895C59860E027E030E0A5
:100D3000492F5527ECE5F0E0A1E0B0E0CA01022E12
:100D400002C0959587950A94E2F780FF02C0C39A86
:100D500001C0C398CF010197F1F7C59ACF01019760
:100D6000F1F7C598B49B08C0CD01022E02C0880FD0
:100D7000991F0A94E2F7682B215030408FEF2F3FE4
:100D80003807E1F6862F99270895EF92FF920F9387
:100D90001F937B018C01892F9927AA27BB27B9DFD5
:100DA000C801AA27BB27B5DFBB27A12F902F8F2D06
:100DB000B0DF8E2DAEDF99271F910F91FF90EF903E
:100DC00008950F931F938C01892F9927A2DF802FFD
:100DD000A0DF99271F910F910895AC0120E030E02A
:100DE000E4E7F3E005C0CF010197F1F72F5F3F4F34
:100DF00024173507C1F7089588E190E02FE00FB67A
:100E0000F894A89581BD0FBE21BD0895A8950895B9
:100E1000FB01DC0101900D920020E1F70895FB0138
:100E20009F0142306CF045325CF4642F772766D026
:100E3000805D8A330CF0895D8193CB010097A9F71F
:100E40001082C90100C0DC01FC0101900020E9F71B
:100E50003297AE17BF0730F47C9160817083319771
:100E60006D93F7CF08952F923F924F925F926F92BA
:100E70007F928F929F92AF92BF92CF92DF92EF922A
:100E8000FF920F931F93CF93DF93CDB7DEB7CA1BAB
:100E9000DB0B0FB6F894DEBF0FBECDBF09942A88D6
:100EA000398848885F846E847D848C849B84AA847E
:100EB000B984C884DF80EE80FD800C811B81AA810B
:100EC000B981CE0FD11D0FB6F894DEBF0FBECDBFD6
:100ED000ED010895E199FECFBFBBAEBBE09A11963C
:100EE0000DB20895E199FECFBFBBAEBB0DBA11960E
:100EF0000FB6F894E29AE19A0FBE0895AA1BBB1BA5
:100F000051E107C0AA1FBB1FA617B70710F0A61B09
:100F1000B70B881F991F5A95A9F780959095BC012A
:040F2000CD01089562
:0C0F2400014156524953505F3200010059
:00000001FF
