:100000000C94F1000C940E010C940E010C94B307A7
:100010000C94BF060C9486070C942C070C9459077B
:100020000C9492060C943F060C940E010C94FC0167
:100030000C940E010C9442020C940E010C940E01CF
:100040000C940E010C943D090C940E010C94FF06C7
:100050000C940E0130313233343536373839414261
:100060004344454600000001000800400000010034
:100070000400000100080020004000800000010092
:10008000041B5B25643B256448001B5B3F32356CD9
:10009000001B5B3F323568001B5B25646D001B5BFA
:1000A000324A001B63002020200020202020202D29
:1000B0002D2D2D2D2D2D2D2D2D2D2D2D2D2D2D2D70
:1000C0002D2D2D2D2D2D2D2D2D2D2D2D2D2D2D2D60
:1000D0002D2D2D2D2D2D2D2D2D2D2D2D2D2D20206A
:1000E0002D2D2D2D204153434949202D2D2D2D2DD2
:1000F0000D0A0020202020203030203031203032E6
:100100002030332030342030352030362030372036
:1001100030382030392030412030422030432030E8
:1001200044203045203046202030313233343536BB
:100130003738394142434445460D0A0052656365EC
:100140006976656420646174613A200053746F724B
:10015000656420646174613A20000D0A52756E6E08
:10016000696E6720493243206D656D6F7279207426
:1001700065737420283234787879792064657669DB
:10018000636573290D0A0053544F00444154412DB7
:1001900000534C412B572D005354412D00556E6B8D
:1001A0006E6F776E20436F6D6D616E6421005265D6
:1001B00063656976653A200053656E643A200043B2
:1001C0006F6D6D616E643E000D0A57656C636F6DF7
:1001D0006520746F206932632074657374210D0A81
:1001E000000011241FBECFE5D4E0DEBFCDBF10E07C
:1001F000A0E6B0E0E6EDFAE102C005900D92A2386B
:10020000B107D9F711E0A2E8B0E001C01D92A13812
:10021000B107E1F70E949B0C0C946A0D0C9400004E
:10022000FC018FB7F89471836083538342831782F4
:100230001682158214828FBF0895CF93DF93DC015D
:100240004FB7F894EC018C819D81892B11F4E0E08B
:100250001CC0FD0186819781ED91FC911197E80FFB
:10026000F91FE0810196ED019F838E832A813B81F6
:100270008217930720F0821B930B9F838E83ED01DF
:100280008C819D8101979D838C834FBF8E2F90E041
:10029000DF91CF910895FC014FB7F8948481958147
:1002A00068177907B0F486819781860F971F978327
:1002B0008683228133818217930720F0821B930B60
:1002C0009783868384819581861B970B958384838E
:1002D00002C0158214824FBF0895FC01CB014FB7B5
:1002E000F8942681378162817381820F931F0E9467
:1002F000060D0190F081E02DE80FF91F80814FBFBE
:1003000090E008951F93CF93DF93EC01162F4FB722
:10031000F8942C813D816A817B8126173707A0F4F0
:100320008E819F81820F931F0E94060DE881F981C3
:10033000E80FF91F10838C819D8101969D838C832A
:100340004FBF8FEF90E003C04FBF80E090E0DF91A0
:10035000CF911F910895FC018FB7F8948FBF8281D0
:10036000938124813581821B930B0895FC018FB703
:10037000F894158214828FBF08959093030180939F
:1003800002010895F3E0660F771F881F991FFA9501
:10039000D1F79B01AC01220F331F441F551F605042
:1003A00070488F489F4F0E942D0D2150304029B931
:1003B000232F332720BD089582E691E008958BE630
:1003C00091E00895982F809161018823E1F39CB911
:1003D00010926101089510926701109266010895CC
:1003E0008091660190916701892B19F48FEF90E05D
:1003F000089580E090E008951F920F920FB60F923B
:1004000011242F933F934F935F936F937F938F9319
:100410009F93AF93BF93EF93FF936CB180910201D1
:1004200090910301892B39F0E0910201F0910301D1
:10043000862F09950FC082E691E00E9482018823F1
:1004400049F4809173019091740101969093740125
:1004500080937301FF91EF91BF91AF919F918F9125
:100460007F916F915F914F913F912F910F900FBEB0
:100470000F901F901895682F8BE691E00E948201E3
:1004800090E008951F920F920FB60F9211242F93B0
:100490003F934F935F936F937F938F939F93AF930C
:1004A000BF93EF93FF9380916A01882371F080914D
:1004B0006F0190917001892B31F08BE691E00E94E1
:1004C0001D018CB905C010926A018FEF8093610104
:1004D000FF91EF91BF91AF919F918F917F916F911C
:1004E0005F914F913F912F910F900FBE0F901F90F2
:1004F0001895CF93DF93EC01809164019091650191
:10050000892B71F08091660190916701892B41F0F0
:1005100082E691E00E941D0188838FEF90E002C087
:1005200080E090E0DF91CF910895CF93DF93CDB736
:10053000DEB721970FB6F894DEBF0FBECDBFCE0158
:1005400001960E947902882319F48FEF9FEF02C071
:10055000898190E021960FB6F894DEBF0FBECDBF23
:10056000DF91CF91089540E450E062E870E082E6C8
:1005700091E00E94100140E450E062EC70E08BE6F4
:1005800091E00E94100108950E94B30210920301AD
:100590001092020188ED8AB960E875E280E090E08F
:1005A0000E94C2018FEF8093610110926A01109244
:1005B000740110927301789408958FEF80936A010B
:1005C0008BE691E00E941D01982F809161018823A4
:1005D000E1F39CB910926101089590930501809315
:1005E000040108951F93182F8A3031F4E09104011B
:1005F000F09105018DE00995E0910401F09105016C
:10060000812F09951F910895CF93DF93EC01892BDA
:1006100021F406C021960E94F20288818823D1F736
:10062000DF91CF910895EF92FF920F931F93CF9395
:10063000DF937A010097C9F0EC01680F791FC617A4
:10064000D70719F089918823D1F700E010E00AC09C
:100650008881882311F0219601C080E20E94F20275
:100660000F5F1F4F0E151F0599F7DF91CF911F9157
:100670000F91FF90EF900895CF93DF93EC01892BBA
:1006800019F407C00E94F202FE012196849188238A
:10069000C9F7DF91CF9108958AE00E94F202089590
:1006A000E82FF0E0EF70F070EC5AFF4FE4918E2FDE
:1006B0000E94F20208951F93182F82958F700E9456
:1006C0005003812F0E9450031F9108950F931F9391
:1006D0008C01812F99270E945B03802F0E945B036E
:1006E0001F910F910895EF92FF920F931F937B013B
:1006F0008C01C801AA27BB270E946603C7010E947C
:1007000066031F910F91FF90EF9008952F923F92F3
:100710004F925F926F927F928F929F92AF92BF9211
:10072000CF92DF92EF92FF920F931F93CF93DF93BD
:10073000CDB7DEB7A4970FB6F894DEBF0FBECDBF1E
:100740004BA32CA327013801442351F017FF08C005
:10075000EE24FF248701E418F5080609170902C0F2
:100760008301720169A390E02BA1211191E0E9A11D
:10077000E91BE150EAA318A2882E992487FC9094E3
:10078000A92CB92CC801B701A50194010E942D0D17
:10079000FB01EF70F070EC5AFF4F64916F8FC8014E
:1007A000B701A50194010E942D0D69017A012EE186
:1007B000222E312C2C0E3D1E22C0C114D104E10486
:1007C000F104B9F0C701B601A50194010E942D0DF5
:1007D000FB01EF70F070EC5AFF4F6491F101608300
:1007E000C701B601A50194010E942D0D69017A018E
:1007F00003C02CA1F1012083089421083108810154
:100800000F5F1F4F8AA181508AA38F3FB1F69BA132
:100810009923B9F077FE03C081018DE20AC041142B
:1008200051046104710419F081018BE202C081015D
:1008300080E2F801808305C0F80181918F010E9458
:10084000F202F9A1F150F9A3FF3FB1F7A4960FB658
:10085000F894DEBF0FBECDBFDF91CF911F910F91F6
:10086000FF90EF90DF90CF90BF90AF909F908F90D0
:100870007F906F905F904F903F902F9008959F9240
:10088000AF92BF92CF92DF92EF92FF920F931F939E
:10089000CF93DF93CDB7DEB722970FB6F894DEBFC4
:1008A0000FBECDBF9888C988DA88CE0143969A8357
:1008B000898305C0882309F46CC00E94F202960166
:1008C0002F5F3F4F992021F0F6016901849103C009
:1008D000F60180816901853269F72F5F3F4F9920CA
:1008E00021F0F6016901849103C0F601808169015C
:1008F0008436A1F0883719F08336F9F607C0E12C69
:1009000060E1F62E50E1A52EB12C0FC0E981FA81ED
:100910003296FA83E98332978081CFCF40E1E42E8B
:1009200047E2F42E3AE0A32EB12CE981FA81329607
:10093000FA83E983129102918436B1F417FF0DC056
:10094000109501951F4F8DE20E94F20206C0C7016B
:100950006AE070E00E94060D7B01F2E0EF16F10400
:1009600018F00E151F0598F3C801B7010E94060D77
:10097000CB010E945003C801B7010E94060D8C01F3
:10098000C701B5010E94060D7B01672B09F497CFC3
:10099000EBCF80E090E022960FB6F894DEBF0FBE5A
:1009A000CDBFDF91CF911F910F91FF90EF90DF901E
:1009B000CF90BF90AF909F900895089583B7887FA0
:1009C000826083BF12BE89B7816089BF10927501B2
:1009D00010927601109277011092780108958EB5E9
:1009E000887F83608EBD1DBC1CBC89B7846089BFB5
:1009F000089585B5887F846085BD14BC89B78064FF
:100A000089BF10927D0110927E0110927F01109299
:100A10008001089593B7987F982B93BF08959EB552
:100A2000987F982B9EBD089595B5987F982B95BD7E
:100A30000895E3B7F0E0E770F070EE0FFF1FEB5999
:100A4000FF4F859194910895EEB5F0E0E770F07056
:100A5000EE0FFF1FEB59FF4F859194910895E5B577
:100A6000F0E0E770F070EE0FFF1FEF58FF4F859139
:100A700094910895883040F4E82FF0E0EE0FFF1FC6
:100A8000EA5FFE4F718360830895883040F4E82F59
:100A9000F0E0EE0FFF1FEA5FFE4F11821082089513
:100AA000EF92FF920F931F93CF93DF93EC0112B756
:100AB0001092790110927A0110927B0110927C01C0
:100AC0000E9419059C0140E050E060E070E880E77A
:100AD00090E00E944F0DCA01B901693B2DE87207F1
:100AE00026E0820720E0920780F427E2C131D20796
:100AF00060F49E0140E050E00E94E70C28EE33E0F5
:100B000040E050E00E942D0D23C028EE33E040E08D
:100B100050E00E942D0DCA01B9019E0140E050E055
:100B20000E94E70C9B01AC0113C080917901909168
:100B30007A01A0917B01B0917C0185B78F7485BF4C
:100B400085B7806485BF889585B78F7B85BF06C0D4
:100B5000210F311D411D511D79018A01209179011B
:100B600030917A0140917B0150917C0182B790E0F5
:100B7000A0E0B0E0542F432F322F2227822B932B5B
:100B8000A42BB52B8E159F05A007B10770F2DF913E
:100B9000CF911F910F91FF90EF90089510927501E2
:100BA0001092760110927701109278010895609169
:100BB0007501709176018091770190917801089587
:100BC00010927D0110927E0110927F01109280019F
:100BD000089560917D0170917E0180917F019091D7
:100BE00080010895893031F48FB582608FBD8FB553
:100BF0008E7F0AC08A3019F48FB5826002C08FB52B
:100C00008D7F8FBD8FB581608FBD1BBC1ABC19BC99
:100C100018BC08952FB52E7F2FBD2FB522602FBD94
:100C20002EB528602EBD2EB520612EBD97BD86BD88
:100C30001BBC1ABC19BC18BC08958FB580688FBD49
:100C40008FB58F7B8FBD08958FB580628FBD8FB5B7
:100C50008F7E8FBD08958FB58F778FBD8FB58F7BBA
:100C60008FBD08958FB58F7D8FBD8FB58F7E8FBD62
:100C700008959BBD8ABD089599BD88BD08951F92B2
:100C80000F920FB60F9211242F933F934F935F93C0
:100C90006F937F938F939F93AF93BF93EF93FF9344
:100CA0008091750190917601A0917701B0917801C2
:100CB0000196A11DB11D8093750190937601A093BB
:100CC0007701B09378018091790190917A01A09198
:100CD0007B01B0917C010196A11DB11D809379012A
:100CE00090937A01A0937B01B0937C0180910601DF
:100CF00090910701892B29F0E0910601F0910701FD
:100D00000995FF91EF91BF91AF919F918F917F9145
:100D10006F915F914F913F912F910F900FBE0F9068
:100D20001F9018951F920F920FB60F9211242F93B8
:100D30003F934F935F936F937F938F939F93AF9363
:100D4000BF93EF93FF938091080190910901892B44
:100D500029F0E0910801F09109010995FF91EF91C7
:100D6000BF91AF919F918F917F916F915F914F91C3
:100D70003F912F910F900FBE0F901F9018951F92CB
:100D80000F920FB60F9211242F933F934F935F93BF
:100D90006F937F938F939F93AF93BF93EF93FF9343
:100DA00080917D0190917E01A0917F01B0918001A1
:100DB0000196A11DB11D80937D0190937E01A093AA
:100DC0007F01B09380018091100190911101892BD6
:100DD00029F0E0911001F09111010995FF91EF9137
:100DE000BF91AF919F918F917F916F915F914F9143
:100DF0003F912F910F900FBE0F901F9018951F924B
:100E00000F920FB60F9211242F933F934F935F933E
:100E10006F937F938F939F93AF93BF93EF93FF93C2
:100E20008091140190911501892B29F0E091140112
:100E3000F09115010995FF91EF91BF91AF919F91AD
:100E40008F917F916F915F914F913F912F910F9073
:100E50000FBE0F901F9018951F920F920FB60F9212
:100E600011242F933F934F935F936F937F938F93AF
:100E70009F93AF93BF93EF93FF9380910A0190915B
:100E80000B01892B29F0E0910A01F0910B010995E2
:100E9000FF91EF91BF91AF919F918F917F916F9152
:100EA0005F914F913F912F910F900FBE0F901F9028
:100EB00018951F920F920FB60F9211242F933F9304
:100EC0004F935F936F937F938F939F93AF93BF9352
:100ED000EF93FF9380910C0190910D01892B29F0E4
:100EE000E0910C01F0910D010995FF91EF91BF91F7
:100EF000AF919F918F917F916F915F914F913F91B2
:100F00002F910F900FBE0F901F9018951F920F9268
:100F10000FB60F9211242F933F934F935F936F93CC
:100F20007F938F939F93AF93BF93EF93FF938091A2
:100F30000E0190910F01892B29F0E0910E01F091A3
:100F40000F010995FF91EF91BF91AF919F918F9103
:100F50007F916F915F914F913F912F910F900FBEB5
:100F60000F901F9018951F920F920FB60F92112499
:100F70002F933F934F935F936F937F938F939F93A1
:100F8000AF93BF93EF93FF93809112019091130160
:100F9000892B29F0E0911201F09113010995FF913D
:100FA000EF91BF91AF919F918F917F916F915F91E1
:100FB0004F913F912F910F900FBE0F901F9018955A
:100FC00080E090E0FC01EE0FFF1FEA5FFE4F118210
:100FD0001082019688309105A9F70E94DE040E94D4
:100FE000EF040E94F904789408958FB58D7F8FBD2A
:100FF0008FB58E7F8FBD8FB58F778FBD8FB58F7B70
:101000008FBD8FB58F7D8FBD8FB58F7E8FBD0895BE
:1010100070E07F936F9390E09F938F9381E890E0CF
:101020009F938F9381E08F930E943F048DB79EB76B
:1010300007960FB6F8949EBF0FBE8DBF0895882304
:1010400019F081E990E002C08AE890E09F938F93C5
:1010500081E08F930E943F040F900F900F900895AE
:1010600090E09F938F9388E990E09F938F9381E026
:101070008F930E943F040F900F900F900F900F904E
:1010800008958EE990E00E943C03089583EA90E081
:101090000E943C030895089809989C0140E050E0A4
:1010A0006CEC7CE180E090E00E944F0D203140F03C
:1010B000822F90E0409762E070E00E941A0D262F88
:1010C00020B90895A89AA99A909A919A10925E01CF
:1010D00010925D011092600110925F0184E690E031
:1010E0000E944B0886B7846086BF10921701109249
:1010F000160186B7816086BF86B7806486BF789404
:10110000089590E0611191E08E7F982B92B9089537
:1011100090935E0180935D010895909360018093A8
:101120005F01089586B78F70806A86BF089586B77D
:101130008F70806D86BF089506B607FEFDCF0895B7
:1011400083B986B78F70806886BF0895882321F0A1
:1011500086B78F70806C03C086B78F70806886BF3B
:10116000089583B190E0089581B190E00895809151
:101170001601909117010895982FFA0186B78E7F76
:1011800086BF86B78F70806A86BF06B607FEFDCF22
:101190009E7F93B986B78F70806886BF06B607FEBC
:1011A000FDCF81B1883169F091E00EC0808183B9B3
:1011B00086B78F70806886BF06B607FEFDCF319672
:1011C0006150662399F790E086B78F70806D86BF77
:1011D00006B604FEFDCF86B7816086BF892F90E0FA
:1011E0000895282FDA018091160190911701892B1B
:1011F000D1F783E090E0909317018093160121606E
:101200002093180110925B0160935C0186B78F7088
:10121000806A86BF8091160190911701892BD1F7C2
:10122000EBE3F1E090E003C081918D939F5F96170F
:10123000D9F70895282FFA0180911601909117018E
:10124000892BD1F782E090E09093170180931601EB
:101250002E7F20931801A9E1B1E090E003C08191B5
:101260008D939F5F9617D9F71092390160933A01D9
:1012700086B78F70806A86BF08951F920F920FB64F
:101280000F9211242F933F934F935F936F937F930C
:101290008F939F93AF93BF93EF93FF9381B1887F19
:1012A000803609F49BC0813670F5883209F45FC03E
:1012B000893298F4803109F457C0813138F4882399
:1012C00009F4E8C0883009F0EDC04EC0883109F457
:1012D0004EC0803209F0E6C0DDC0803409F473C02E
:1012E000813438F4803309F4D5C0883309F0DAC08A
:1012F0005BC0803509F45CC0883509F449C0883486
:1013000009F0D0C0C7C0883909F480C08939B0F469
:10131000883709F463C0893738F4883609F45EC029
:10132000803709F0BFC05AC0883809F46FC08039CF
:1013300009F45DC0803809F0B5C059C0803B09F49C
:1013400079C0813B38F4803A09F464C0883A09F0E6
:10135000A9C070C0803C09F499C0883C09F496C0CB
:10136000883B09F09FC07AC0809118010FC090910E
:10137000390180913A01981708F08CC0E92FF0E00C
:10138000E75EFE4F80819F5F9093390183B979C0FA
:1013900080915B0193B1E82FF0E0E55CFE4F908314
:1013A0008F5F80935B0176C086B78F70806875C051
:1013B00080915B0193B1E82FF0E0E55CFE4F9083F4
:1013C0008F5F80935B0120915B0130E080915C0135
:1013D00090E0019728173907BCF018C085E090E02D
:1013E000909317018093160110925B0146C0809183
:1013F0005B0193B1E82FF0E0E55CFE4F90838F5FD7
:1014000080935B01803210F48FEF01C080E00E9476
:10141000A60848C086B78F70806C86BFE0915D01DA
:10142000F0915E013097D1F16BE371E080915B0147
:10143000099534C084E090E09093170180931601E1
:10144000E0915F01F0916001309731F069E171E066
:1014500080E2099580933A01109239019091390107
:10146000E92FF0E0E75EFE4F808183B99F5F9093A4
:10147000390180913A01981720F486B78F70806CFB
:1014800003C086B78F70806886BF0CC086B78F7028
:10149000806C03C086B78F70806D86BF1092170175
:1014A00010921601FF91EF91BF91AF919F918F9193
:1014B0007F916F915F914F913F912F910F900FBE50
:1014C0000F901F9018951F93CF93DF93982F162F8F
:1014D000EA0186B78E7F86BF86B78F70806A86BF27
:1014E00006B607FEFDCF916093B986B78F7080680E
:1014F00086BF06B607FEFDCF81B1803459F091E07A
:1015000014C08FEF0E94A60806B607FEFDCF83B178
:10151000899311501230A8F780E00E94A60806B601
:1015200007FEFDCF83B1888390E086B78F70806D12
:1015300086BF86B7816086BF892F90E0DF91CF910B
:101540001F9108952F923F924F925F926F927F92D8
:101550008F929F92AF92BF92CF92DF92EF92FF92C3
:101560000F931F93CF93DF938C012B0183EF90E0B8
:101570000E943C038AEA90E00E943C03882499245C
:10158000015F1F4F380124E0769467942A95E1F7B4
:101590000F50104096EA292E90E0392E4AC054018F
:1015A00084E0AA0CBB1C8A95E1F7C5010E94660382
:1015B00080E20E94F2026201CA0CDB1CE601EE240A
:1015C000FF24C7018A0D9B1D8017910738F488817D
:1015D0000E945B0380E20E94F20203C0C1010E94EC
:1015E0003C030894E11CF11C219680E1E816F1040B
:1015F00041F780E20E94F202C0E0D0E0CE018A0D05
:101600009B1D8017910730F4F6018081803218F419
:101610008EE201C080E20E94F20221960894C11C71
:10162000D11CC031D10551F70E944C030894811C94
:10163000911C8614970408F4B2CFDF91CF911F91CB
:101640000F91FF90EF90DF90CF90BF90AF909F9061
:101650008F907F906F905F904F903F902F90089564
:101660009FEF97BB809588BB08950F931F93CF93EF
:10167000DF93CDB7DEB7C458D0400FB6F894DEBFC5
:101680000FBECDBF8AE591E00E943C0319821A8209
:10169000E0E6F0E0DE01139681918D9380E0E03783
:1016A000F807D1F78E010F5F1F4FA80162E180EAB2
:1016B0000E94BC088CE491E00E943C031B8ACE018E
:1016C00003960E9404030E944C0384E690E00E946B
:1016D0005005A80162E080EA0E94BC088E010D5B03
:1016E0001F4FA80160E180EA0E94630AF801108A96
:1016F0008CE391E00E943C03C8010E9404030E9415
:101700004C03CC57DF4F0FB6F894DEBF0FBECDBFF2
:10171000DF91CF911F910F910895FF920F931F9327
:10172000CF93DF93082FF62EEA0186B78E7F86BF10
:101730000E9492080E949C0888E991E09F938F93F1
:1017400011E01F930E943F04802F8E7F0E94A0080B
:101750000E949C0881E991E09F938F931F930E94C0
:101760003F048DB79EB706960FB6F8949EBF0FBE86
:101770008DBF0BE811E00FC089910E94A0080E9464
:101780009C081F930F9381E08F930E943F04FA946B
:101790000F900F900F90FF2079F70E94970806B6E0
:1017A00004FEFDCF87E891E09F938F9381E08F93B4
:1017B0000E943F0486B7816086BF0F900F900F9004
:1017C000DF91CF911F910F91FF9008956F927F92BB
:1017D0008F929F92AF92BF92CF92DF92EF92FF9241
:1017E0000F931F93CF93DF93CDB7DEB721970FB63B
:1017F000F894DEBF0FBECDBF19821FEF17BB8AEA78
:1018000088BB0E9462086FEF80EA0E94810889EB22
:101810009CE00E9488088DEC9CE00E948D0884EF7B
:1018200091E00E94500517BB85E588BB3FEB632E16
:1018300031E0732E7E010894E11CF11C2EEA822E09
:1018400021E0922E00E610E098EBA92E91E0B92E4F
:101850008DE9C82E81E0D82E7F926F9281E08F9320
:101860000E943F040F900F900F9003C0C7010E9489
:10187000790289818823D1F38237D1F1833721F02E
:101880008D3609F04BC047C0BF92AF9281E08F9375
:101890000E943F041092810019820F900F900F90C8
:1018A00012C0C7010E9479028823D9F39091810068
:1018B0008981E92FF0E0E05AFF4F80839F5F90938A
:1018C00081000E94E20189818D3021F080918100A8
:1018D000803238F360918100E62FF0E0E15AFF4F4B
:1018E0001082A80180EA0E941A090E944C031FC0BE
:1018F0009F928F9281E08F930E943F04A80160E144
:1019000080EA0E94F10810927000C8010E9404034E
:101910000E944C0309C00E94350B09C0DF92CF9290
:1019200081E08F930E943F040F900F900F901982D7
:101930000E944C0391CF0E94C40282EE91E00E946B
:10194000ED020E94E0070E94410861E081E00E94F0
:10195000080888EC91E09F938F9381E08F930E9419
:101960003F040E94E60B0F900F900F9080E090E0F4
:101970000895282FFB018FEF87BB8081809588BB5E
:10198000C698A0E6B0E090E003C081918D939F5F80
:101990009217D9F7209381000895FB018FEF87BB41
:1019A0008081809588BBC79890918100A0E6B0E0C7
:1019B00020E003C08D9181932F5F2917D9F7809183
:1019C00060008F5F80936000892F90E00895629F90
:1019D000D001739FF001829FE00DF11D649FE00D27
:1019E000F11D929FF00D839FF00D749FF00D659F88
:1019F000F00D9927729FB00DE11DF91F639FB00D87
:101A0000E11DF91FBD01CF0111240895AA1BBB1BC5
:101A100051E107C0AA1FBB1FA617B70710F0A61BEE
:101A2000B70B881F991F5A95A9F780959095BC010F
:101A3000CD01089597FB092E07260AD077FD04D023
:101A4000E5DF06D000201AF4709561957F4F089568
:101A5000F6F7909581959F4F0895A1E21A2EAA1B43
:101A6000BB1BFD010DC0AA1FBB1FEE1FFF1FA2174E
:101A7000B307E407F50720F0A21BB30BE40BF50B4B
:101A8000661F771F881F991F1A9469F760957095D4
:101A9000809590959B01AC01BD01CF01089597FB06
:101AA000092E05260ED057FD04D0D7DF0AD0001C22
:101AB00038F450954095309521953F4F4F4F5F4FEB
:101AC0000895F6F790958095709561957F4F8F4FAB
:061AD0009F4F0895FFCFB7
:101AD60050617363616C20697320636F6F6C2121A1
:101AE60050617363616C20697320436F6F6C2121B1
:021AF6000020CE
:00000001FF
