:100000005CC076C075C0C1C6F9C592C637C663C6A6
:10001000C8C574C56DC056C16BC098C180C768C0E3
:1000200067C066C065C03031323334353637383951
:1000300041424344454600000001000800400000E2
:1000400001000400000100080020004000800000C2
:100050000100041B5B25643B256448001B5B3F32A9
:10006000356C001B5B3F323568001B5B25646D00FF
:100070001B5B324A001B63000D0A5465737465757F
:100080007220646520736572766F20656E20636FE1
:100090007572732E2E2E53656261737469656E20BE
:1000A00043454C4C45530D0A000D0A536572766F5B
:1000B000207465737465720D0A0011241FBECFE5AC
:1000C000D4E0DEBFCDBF11E0A0E6B0E0EEEFFDE191
:1000D00002C005900D92A836B107D9F712E0A8E644
:1000E000B1E001C01D92AD31B107E1F75AD786CE1C
:1000F00087CFFC018FB7F894718360835383428369
:1001000017821682158214828FBF0895CF93DF93D2
:10011000DC014FB7F894EC018C819D81892B11F49F
:10012000E0E01CC0FD0186819781ED91FC91119763
:10013000E80FF91FE0810196ED019F838E832A81EC
:100140003B818217930720F0821B930B9F838E8342
:10015000ED018C819D8101979D838C834FBF8E2FF4
:1001600090E0DF91CF910895FC014FB7F89484811E
:10017000958168177907B0F486819781860F971F5C
:1001800097838683228133818217930720F0821B15
:10019000930B9783868384819581861B970B958328
:1001A000848302C0158214824FBF0895FC01CB01E5
:1001B0004FB7F8942681378162817381820F931F34
:1001C00095DD0190F081E02DE80FF91F80814FBF90
:1001D00090E008951F93CF93DF93EC01162F4FB754
:1001E000F8942C813D816A817B812617370798F42A
:1001F0008E819F81820F931F79DDE881F981E80F5D
:10020000F91F10838C819D8101969D838C834FBF44
:100210008FEF90E003C04FBF80E090E0DF91CF917F
:100220001F910895FC018FB7F8948FBF828193814D
:1002300024813581821B930B0895FC018FB7F894BC
:10024000158214828FBF08959093E9018093E8018D
:100250000895F3E0660F771F881F991FFA95D1F76D
:100260009B01AC01220F331F441F551F60507E4E6F
:1002700085489F4F4FDD2150304029B9232F332728
:1002800020BD08958BEF91E0089584E092E00895F9
:10029000982F8091FA018823E1F39CB91092FA011A
:1002A0000895109200021092FF0108958091FF01BD
:1002B00090910002892B19F48FEF90E0089580E06F
:1002C00090E008951F920F920FB60F9211242F9372
:1002D0003F934F935F936F937F938F939F93AF93CE
:1002E000BF93EF93FF936CB18091E8019091E90186
:1002F000892B39F0E091E801F091E901862F099509
:100300000EC08BEF91E066DF882349F480910C02E8
:1003100090910D02019690930D0280930C02FF9133
:10032000EF91BF91AF919F918F917F916F915F916D
:100330004F913F912F910F900FBE0F901F901895E6
:10034000682F84E092E046DF90E008951F920F92BC
:100350000FB60F9211242F933F934F935F936F9398
:100360007F938F939F93AF93BF93EF93FF9380916E
:100370000302882369F08091080290910902892B79
:1003800029F084E092E0C2DE8CB905C0109203022D
:100390008FEF8093FA01FF91EF91BF91AF919F9101
:1003A0008F917F916F915F914F913F912F910F901E
:1003B0000FBE0F901F901895CF93DF93EC018091A3
:1003C000FD019091FE01892B69F08091FF019091D0
:1003D0000002892B39F08BEF91E098DE88838FEF54
:1003E00090E002C080E090E0DF91CF910895CF933C
:1003F000DF93CDB7DEB721970FB6F894DEBF0FBEFF
:10040000CDBFCE010196D8DF882319F48FEF9FEF7F
:1004100002C0898190E021960FB6F894DEBF0FBE2E
:10042000CDBFDF91CF91089540E450E068E671E0E0
:100430008BEF91E05EDE40E450E068EA71E084E03A
:1004400092E057DE0895F0DF1092E9011092E80182
:1004500088ED8AB960E875E280E090E0FADE8FEF1F
:100460008093FA011092030210920D0210920C0276
:10047000789408958FEF8093030284E092E046DE43
:10048000982F8091FA018823E1F39CB91092FA0128
:1004900008959093EB018093EA0108951F93182F1C
:1004A0008A3031F4E091EA01F091EB018DE0099599
:1004B000E091EA01F091EB01812F09951F910895D8
:1004C000CF93DF93EC01892B19F405C02196E6DF69
:1004D00088818823D9F7DF91CF910895EF92FF9219
:1004E0000F931F93CF93DF937A010097C1F0EC0134
:1004F000680F791FC617D70719F089918823D1F79C
:1005000000E010E009C08881882311F0219601C025
:1005100080E2C4DF0F5F1F4F0E151F05A1F7DF91AB
:10052000CF911F910F91FF90EF900895CF93DF939C
:10053000EC01892B11F406C0B1DFFE0121968491F4
:100540008823D1F7DF91CF9108958AE0A7DF08953E
:10055000E82FF0E0EF70F070EA5DFF4FE4918E2F2E
:100560009DDF08951F93182F82958F70F1DF812FE3
:10057000EFDF1F9108950F931F938C01812F99270F
:10058000F1DF802FEFDF1F910F910895EF92FF921F
:100590000F931F937B018C01C801AA27BB27EBDFB8
:1005A000C701E9DF1F910F91FF90EF9008952F92FF
:1005B0003F924F925F926F927F928F929F92AF92F3
:1005C000BF92CF92DF92EF92FF920F931F93CF9340
:1005D000DF93CDB7DEB7A4970FB6F894DEBF0FBE9A
:1005E000CDBF4BA32CA327013801442351F017FFA3
:1005F00008C0EE24FF248701E418F508060917094E
:1006000002C08301720169A390E02BA1211191E046
:10061000E9A1E91BE150EAA318A2882E992487FCDE
:100620009094A92CB92CC801B701A501940172DBE3
:10063000FB01EF70F070EA5DFF4F64916F8FC801AE
:10064000B701A501940166DB69017A012EE1222E32
:10065000312C2C0E3D1E20C0C114D104E104F10444
:10066000A9F0C701B601A501940154DBFB01EF70AD
:10067000F070EA5DFF4F6491F1016083C701B6013C
:10068000A501940147DB69017A0103C02CA1F101A6
:10069000208308942108310881010F5F1F4F8AA130
:1006A00081508AA38F3FC1F69BA19923B1F077FEB9
:1006B00003C081018DE20AC0411451046104710438
:1006C00019F081018BE202C0810180E2F801808390
:1006D00004C0F80181918F01E1DEF9A1F150F9A385
:1006E000FF3FB9F7A4960FB6F894DEBF0FBECDBF9B
:1006F000DF91CF911F910F91FF90EF90DF90CF90FE
:10070000BF90AF909F908F907F906F905F904F9031
:100710003F902F9008959F92AF92BF92CF92DF9219
:10072000EF92FF920F931F93CF93DF93CDB7DEB776
:1007300022970FB6F894DEBF0FBECDBF9888C98848
:10074000DA88CE0143969A83898304C0882309F40A
:1007500065C0A4DE96012F5F3F4F992021F0F6017E
:100760006901849103C0F60180816901853271F7C6
:100770002F5F3F4F992021F0F6016901849103C05A
:10078000F601808169018436A1F0883719F083363B
:1007900001F707C0E12C60E1F62E50E1A52EB12C47
:1007A0000FC0E981FA813296FA83E983329780811A
:1007B000D0CF40E1E42E47E2F42E3AE0A32EB12C54
:1007C000E981FA813296FA83E983129102918436A3
:1007D000A1F417FF0BC0109501951F4F8DE25EDE4F
:1007E00005C0C7016AE070E081DA7B01F2E0EF1634
:1007F000F10418F00E151F05A0F3C801B70176DA51
:10080000CB01A6DEC801B70171DA8C01C701B501C1
:100810006DDA7B01672B09F49DCFEFCF80E090E08C
:1008200022960FB6F894DEBF0FBECDBFDF91CF91F9
:100830001F910F91FF90EF90DF90CF90BF90AF90FE
:100840009F900895089583B7887F826083BF12BE0A
:1008500089B7816089BF10920E0210920F02109228
:1008600010021092110208958EB5887F83608EBDAC
:100870001DBC1CBC89B7846089BF089585B5887F7D
:10088000846085BD14BC89B7806489BF109216024C
:10089000109217021092180210921902089593B73D
:1008A000987F982B93BF08959EB5987F982B9EBDF7
:1008B000089595B5987F982B95BD0895E3B7F0E01E
:1008C000E770F070EE0FFF1FE95CFF4F8591949188
:1008D0000895EEB5F0E0E770F070EE0FFF1FE95CF1
:1008E000FF4F859194910895E5B5F0E0E770F070C1
:1008F000EE0FFF1FED5BFF4F8591949108958730B8
:1009000040F4E82FF0E0EE0FFF1FE451FE4F71833B
:1009100060830895873040F4E82FF0E0EE0FFF1F6A
:10092000E451FE4F118210820895EF92FF920F93CF
:100930001F93CF93DF93EC0112B710921202109223
:1009400013021092140210921502B8DF9C0140E0CD
:1009500050E060E072E18AE790E0FED9CA01B90197
:10096000693B2DE8720726E0820720E0920770F4C9
:1009700027E2C131D20750F49E0140E050E097D900
:1009800028EE33E040E050E0C5D921C028EE33E046
:1009900040E050E0BFD9CA01B9019E0140E050E0FB
:1009A00086D99B01AC0113C0809112029091130271
:1009B000A0911402B091150285B78F7885BF85B7D5
:1009C000806885BF889585B78F7785BF06C0210F62
:1009D000311D411D511D79018A0120911202309172
:1009E0001302409114025091150282B790E0A0E0EA
:1009F000B0E0542F432F322F2227822B932BA42B8E
:100A0000B52B8E159F05A007B10770F2DF91CF912E
:100A10001F910F91FF90EF90089510920E02109287
:100A20000F021092100210921102089560910E02AE
:100A300070910F028091100290911102089510920E
:100A400016021092170210921802109219020895BD
:100A5000609116027091170280911802909119020C
:100A60000895893031F48FB582608FBD8FB58E7F48
:100A70000AC08A3019F48FB5826002C08FB58D7FAD
:100A80008FBD8FB581608FBD1BBC1ABC19BC18BC53
:100A900008952FB52E7F2FBD2FB522602FBD2EB507
:100AA00028602EBD2EB520612EBD97BD86BD1BBC16
:100AB0001ABC19BC18BC08958FB580688FBD8FB55E
:100AC0008F7B8FBD08958FB580628FBD8FB58F7E70
:100AD0008FBD08958FB58F778FBD8FB58F7B8FBDFD
:100AE00008958FB58F7D8FBD8FB58F7E8FBD089593
:100AF0009BBD8ABD089599BD88BD08951F920F9230
:100B00000FB60F9211242F933F934F935F936F93E0
:100B10007F938F939F93AF93BF93EF93FF938091B6
:100B20000E0290910F02A0911002B0911102019655
:100B3000A11DB11D80930E0290930F02A09310028D
:100B4000B09311028091120290911302A0911402AD
:100B5000B09115020196A11DB11D809312029093D0
:100B60001302A0931402B09315028091EC019091AE
:100B7000ED01892B29F0E091EC01F091ED0109954F
:100B8000FF91EF91BF91AF919F918F917F916F9165
:100B90005F914F913F912F910F900FBE0F901F903B
:100BA00018951F920F920FB60F9211242F933F9317
:100BB0004F935F936F937F938F939F93AF93BF9365
:100BC000EF93FF938091EE019091EF01892B29F033
:100BD000E091EE01F091EF010995FF91EF91BF9146
:100BE000AF919F918F917F916F915F914F913F91C5
:100BF0002F910F900FBE0F901F9018951F920F927C
:100C00000FB60F9211242F933F934F935F936F93DF
:100C10007F938F939F93AF93BF93EF93FF938091B5
:100C2000160290911702A0911802B0911902019634
:100C3000A11DB11D8093160290931702A093180274
:100C4000B09319028091F6019091F701892B29F058
:100C5000E091F601F091F7010995FF91EF91BF91B5
:100C6000AF919F918F917F916F915F914F913F9144
:100C70002F910F900FBE0F901F9018951F920F92FB
:100C80000FB60F9211242F933F934F935F936F935F
:100C90007F938F939F93AF93BF93EF93FF93809135
:100CA000F0019091F101892B29F0E091F001F09190
:100CB000F1010995FF91EF91BF91AF919F918F91B4
:100CC0007F916F915F914F913F912F910F900FBE48
:100CD0000F901F9018951F920F920FB60F9211242C
:100CE0002F933F934F935F936F937F938F939F9334
:100CF000AF93BF93EF93FF938091F2019091F30133
:100D0000892B29F0E091F201F091F3010995FF910F
:100D1000EF91BF91AF919F918F917F916F915F9173
:100D20004F913F912F910F900FBE0F901F901895EC
:100D30001F920F920FB60F9211242F933F934F9350
:100D40005F936F937F938F939F93AF93BF93EF9333
:100D5000FF938091F4019091F501892B29F0E091A6
:100D6000F401F091F5010995FF91EF91BF91AF91D9
:100D70009F918F917F916F915F914F913F912F91B3
:100D80000F900FBE0F901F9018951F920F920FB6E5
:100D90000F9211242F933F934F935F936F937F9301
:100DA0008F939F93AF93BF93EF93FF938091F8013D
:100DB0009091F901892B29F0E091F801F091F90166
:100DC0000995FF91EF91BF91AF919F918F917F9185
:100DD0006F915F914F913F912F910F900FBE0F90A8
:100DE0001F90189580E090E0FC01EE0FFF1FE4518A
:100DF000FE4F11821082019687309105A9F723DDFD
:100E000033DD3CDD789408958FB58D7F8FBD8FB530
:100E10008E7F8FBD8FB58F778FBD8FB58F7B8FBD49
:100E20008FB58F7D8FBD8FB58F7E8FBD089570E09C
:100E30007F936F9390E09F938F9383E590E09F93D0
:100E40008F9381E08F9367DC8DB79EB707960FB6BF
:100E5000F8949EBF0FBE8DBF0895882319F083E6D6
:100E600090E002C08CE590E09F938F9381E08F9398
:100E700052DC0F900F900F90089590E09F938F9306
:100E80008AE690E09F938F9381E08F9344DC0F90EC
:100E90000F900F900F900F90089580E790E046DB41
:100EA000089585E790E042DB0895339837980895D8
:100EB00096B1987F982B96B9089597B18295880F2F
:100EC000880F807C9F73982B97B9089597B18F7185
:100ED000907E892B87B90895349A369A089586B101
:100EE00090E080749070089510921A0297B18F71FB
:100EF000907E892B87B9349A369A3699FECF24B1E1
:100F000085B190E0982F882730E0822B932B0895AD
:100F1000EBDF969587959695879590E008951F92BB
:100F20000F920FB60F9211248F938FEF80931A02B6
:100F30008F910F900FBE0F901F901895379A35988C
:100F400086B1887F866086B981E0B7DF3D98339AA5
:100F500010921A0278940895B99A80E29EE497BD9F
:100F600086BD8CED95E09BBD8ABD82E88FBD8AE190
:100F70008EBD089568DA60E875E280E090E069D996
:100F800088E491E086DA2EDF8CDF87DF89EA90E063
:100F90009F938F9381E08F93BEDB0F900F900F9004
:100FA00008950F931F93CF93DF938F9A979ABB9ACD
:100FB000C39A89E685BD13BCDDDFCEDFBFDF8FE7D7
:100FC00090E090931C0280931B02C8E7D0E080E081
:100FD0008BDF8C0190931C0280931B02BC0180E08C
:100FE00090E003D420E030E04AE754E4D3D120E09D
:100FF00030EC4FE754E4C8D220E030E04AE754E454
:10100000A2D110D07BBD6ABD1695079516950795A0
:1010100003BDDF93CF9381E08F937DDB0F900F9023
:101020000F90D5CFEF92FF920F931F937B018C010E
:1010300020E030E040E05FE457D388236CF020E00C
:1010400030E040E05FE4C801B70152D17ED3605088
:1010500070408040904803C0C801B70176D31F910B
:101060000F91FF90EF900895A0E0B0E0E9E3F8E081
:1010700090C62C015B01FA01DC019C91923008F4CE
:1010800032C1EB018881823008F42CC1943071F4B4
:10109000843009F028C1F20191818981981709F4FF
:1010A00022C110E6412E10E0512E1DC1843009F4FA
:1010B00019C18230A9F4923009F015C1CA01A20108
:1010C00028E0DA010D90AD01EC010992CE0121502A
:1010D000C1F7E5018981E20199818923818300C1FA
:1010E000923009F4FFC0E201CA80DB80EB018A8103
:1010F0009B81E2012C813D814E815F81EB01EC807F
:10110000FD800E811F81B601681B790BDB0177FF23
:1011100003C0709561957F4F603271050CF05DC022
:101120001A161B065CF566247724430181E090E0E3
:10113000A0E0B0E0062E04C0880F991FAA1FBB1FB5
:101140000A94D2F70197A109B1098E219F21A0230A
:10115000B1230097A105B10529F0B1E06B2E712CE8
:10116000812C912C04C016950795F794E7946A9505
:10117000D2F7E628F728082919293BC0AB2BC9F17B
:10118000C60ED71E66247724430181E090E0A0E0DC
:10119000B0E0062E04C0880F991FAA1FBB1F0A9437
:1011A000D2F70197A109B10982239323A423B52380
:1011B0000097A105B10529F0A1E06A2E712C812CC0
:1011C000912C04C056954795379527956A95D2F787
:1011D00026293729482959290CC08C159D0534F03A
:1011E0006C0120E030E040E050E003C0EE24FF243A
:1011F0008701E2019981E5018981981709F443C0CB
:10120000992339F0E21AF30A040B150BA801970190
:1012100004C02E193F09400B510B57FD08C0118225
:10122000D382C28224833583468357831DC081E0E5
:101230008183D382C28288279927DC01821B930B8A
:10124000A40BB50B84839583A683B7830DC0220FAF
:10125000331F441F551F2483358346835783828160
:1012600093810197938382832481358146815781BD
:10127000DA01C9010197A109B1098F5F9F4FAF4FF3
:10128000BF4328F30BC09183D382C2822E0D3F1D32
:10129000401F511F248335834683578383E0808317
:1012A00024813581468157815523D4F4C901AA2769
:1012B00097FDA095BA2F81709070A070B070569570
:1012C000479537952795822B932BA42BB52B848399
:1012D0009583A683B78382819381019693838283CA
:1012E0002F0101C02501C201E0E1CDB7DEB76DC518
:1012F000A0E2B0E0EDE7F9E056C569837A838B831D
:101300009C832D833E834F83588709E0E02EF12C88
:10131000EC0EFD1EB701CE01019603D48E010F5EC7
:101320001F4FB801CE010596FCD38A8991E0892729
:101330008A8BAE01475E5F4FB801C70195DE11D3BE
:10134000E6E0A0964CC5A0E2B0E0E8EAF9E02BC5E3
:1013500069837A838B839C832D833E834F83588755
:1013600089E0E82EF12CEC0EFD1EB701CE010196AE
:10137000D8D38E010F5E1F4FB801CE010596D1D391
:10138000AE01475E5F4FB801C7016EDEEAD2E6E00C
:10139000A09625C5A0E2B0E0EFECF9E0FAC46983BD
:1013A0007A838B839C832D833E834F83588799E078
:1013B000E92EF12CEC0EFD1EB701CE010196B1D342
:1013C0008E010F5E1F4FB801CE010596AAD39985F5
:1013D000923088F089898230C0F0943019F48230DC
:1013E00029F009C0843029F4923079F460E670E085
:1013F000C6C0923041F420E09A858A89981321E092
:101400002A87B701BCC0823041F420E09A858A89DE
:10141000981321E02A8BB801B2C0CD84DE84EF841A
:10142000F8880D891E892F89388D882499245401C4
:1014300040E050E060E070E0442455243201E0E0F8
:10144000F0E0C60181709070892BD9F0800E911E5A
:10145000A21EB31EDB01CA01840D951DA61DB71D7A
:1014600040E050E060E070E080169106A206B3060E
:1014700020F441E050E060E070E0480F591F6A1F1F
:101480007B1F440C551C661C771C37FF08C081E08D
:1014900090E0A0E0B0E0482A592A6A2A7B2A3196D7
:1014A000E032F10549F0000F111F221F331FF6949F
:1014B000E794D794C794C5CF8B899C892B853C85AD
:1014C000820F931F02969C8F8B8F1A8E9A858A8922
:1014D000981711F081E08A8F2B8D3C8D17C0CA01BF
:1014E00081709070892B61F0B694A794979487943B
:1014F00080E090E0A0E0B0E8882A992AAA2ABB2AD6
:1015000076956795579547952F5F3F4F77FDE7CFC6
:10151000C9010BC0440F551F661F771FB7FC416000
:10152000880C991CAA1CBB1C01974030A0E05A07EC
:10153000A0E06A07A0E47A0768F39C8F8B8FDB0139
:10154000CA018F779070A070B07080349105A105AA
:10155000B10561F447FD0AC081149104A104B104EE
:1015600029F0405C5F4F6F4F7F4F40784D8F5E8F0B
:101570006F8F78A383E0898FBE01675E7F4FCB01B9
:10158000F0D1E0E1A09621C4A8E1B0E0E9ECFAE0F6
:1015900006C469837A838B839C832D833E834F8328
:1015A00058878E01075F1F4FB801CE010196B9D24F
:1015B00081E1E82EF12CEC0EFD1EB701CE0105965F
:1015C000B0D239853230F8F02989223010F4B701D1
:1015D00086C08A859A8989278A87343011F032300B
:1015E00029F4321781F460E670E079C0243039F4D0
:1015F0001D861E861F86188A1C861B8604C0223004
:1016000021F484E08987B8016AC06B857C858B8969
:101610009C89681B790B7C876B872D853E854F8560
:1016200058898D899E89AF89B88D281739074A074F
:101630005B0740F4220F331F441F551F6150704059
:101640007C876B87A12CB12CC12C10E4D12EEE2409
:10165000FF24870160E070E0281739074A075B071D
:1016600040F0EA28FB280C291D29281B390B4A0BBE
:101670005B0BD694C794B794A794220F331F441FD3
:10168000551F6F5F7F4F6F31710531F7D801C7016B
:101690008F779070A070B07080349105A105B1056E
:1016A000B9F4E7FC15C0211531054105510581F05C
:1016B00080E490E0A0E0B0E0E80EF91E0A1F1B1FD6
:1016C00080E89FEFAFEFBFEFE822F9220A231B2348
:1016D000ED86FE860F87188BBE01675F7F4FCB01BB
:1016E00040D1EAE0689677C3A8E1B0E0E9E7FBE023
:1016F0005AC369837A838B839C832D833E834F8374
:10170000588789E0E82EF12CEC0EFD1EB701CE01C2
:10171000019607D28E010F5E1F4FB801CE010596CC
:1017200000D28985823058F08989823040F0B80132
:10173000C70167D2282F332727FD309502C02FEF2E
:101740003FEFC901E6E068964AC3ACE0B0E0EAEAE0
:10175000FBE02DC369837A838B839C83BE016B5F1F
:101760007F4FCE010196DDD18D818230A9F182308B
:1017700098F1843021F48E81882359F40FC02F8191
:10178000388537FD29C06E812F31310564F066231D
:1017900029F020E030E040E050E822C02FEF3FEF9A
:1017A0004FEF5FE71DC08EE190E0821B930B298510
:1017B0003A854B855C8504C05695479537952795A6
:1017C0008A95D2F7662361F0509540953095219522
:1017D0003F4F4F4F5F4F04C020E030E040E050E00B
:1017E000CA01B901E2E02C96FEC2A8E0B0E0EAEF3F
:1017F000FBE0D7C27B018C01611571058105910564
:1018000019F482E0898359C083E089838EE1C82E70
:10181000D12CDC82CB82ED82FE820F831887C80137
:10182000B70152D0BC016150704077FF33C0EE2742
:10183000FF27E61BF70B20E030E040E050E081E0BE
:1018400090E0A0E0B0E00E2E04C0880F991FAA1F00
:10185000BB1F0A94D2F70197A109B1098E219F21DC
:10186000A023B1230097A105B10521F021E030E0CC
:1018700040E050E004C016950795F794E794EA9588
:10188000D2F72E293F29402B512B2D833E834F83A6
:1018900058870FC06115710581F0062E04C0EE0C4B
:1018A000FF1C001F111F0A94D2F7ED82FE820F83E6
:1018B0001887C61AD70ADC82CB821A82CE0101961B
:1018C00050D0E8E0289689C2EF92FF920F931F93C1
:1018D0009B01AC01203080E0380781E0480780E0C0
:1018E000580780F42F3F31054105510509F020F4D8
:1018F000EE24FF24870119C068E0E62EF12C012DAB
:10190000112D13C0203080E0380780E0480781E0C7
:10191000580730F490E1E92EF12C012D112D05C06E
:1019200088E1E82EF12C012D112D80E290E0A0E05D
:10193000B0E08E199F09A00BB10B04C056954795D6
:1019400037952795EA94D2F7F901E859FF4F20819E
:10195000821B9109A109B1091F910F91FF90EF908E
:1019600008959F92AF92BF92CF92DF92EF92FF9233
:101970000F931F93EE24FF248701FC0124813581FE
:101980004681578191808081823010F44061A2C0ED
:10199000843009F49BC0823029F420E030E040E03C
:1019A00050E005C0211531054105510519F4E0E06D
:1019B000F0E092C0828193816FEF823896070CF03D
:1019C0005AC062E87FEF681B790B6A3171052CF011
:1019D00020E030E040E050E02AC0AA24BB246501AA
:1019E00081E090E0A0E0B0E0062E04C0880F991FCF
:1019F000AA1FBB1F0A94D2F70197A109B10982233C
:101A00009323A423B5230097A105B10529F071E024
:101A1000A72EB12CC12CD12C04C0569547953795D3
:101A200027956A95D2F72A293B294C295D29DA01A5
:101A3000C9018F779070A070B07080349105A105B6
:101A4000B10539F427FF09C0205C3F4F4F4F5F4F6E
:101A500004C0215C3F4F4F4F5F4F80E090E020304B
:101A600060E0360760E0460760E4560710F081E06A
:101A700090E0FC0123C08038910544F5FC01E15859
:101A8000FF4FDA01C9018F779070A070B070803479
:101A90009105A105B10539F427FF09C0205C3F4F2E
:101AA0004F4F5F4F04C0215C3F4F4F4F5F4F57FF79
:101AB00005C05695479537952795319687E05695F9
:101AC0004795379527958A95D1F706C020E030E0F5
:101AD00040E050E0EFEFF0E0E22EF32E942F9F77FE
:101AE000802F8078892B9E2F9795992797958F77B0
:101AF000082F092B9E2F9695812F8078892B9794FC
:101B0000992497948F77182F1929C801B7011F912D
:101B10000F91FF90EF90DF90CF90BF90AF909F908C
:101B20000895CF93DF93FC01DB0120813181928105
:101B3000492F4F7750E0991F9927991F8381E82FEC
:101B4000EE0FE92B6E2F70E0881F8827881FED01AC
:101B50008983EE2371F5211531054105510511F4F5
:101B600082E02FC06E577040FD017383628367E08F
:101B7000220F331F441F551F6A95D1F783E08C93C2
:101B80000AC0220F331F441F551FED018A819B811C
:101B900001979B838A832030E0E03E07E0E04E0718
:101BA000E0E45E0770F3ED012C833D834E835F8399
:101BB00025C0EF3F79F4211531054105510519F490
:101BC00084E08C931BC044FF03C081E08C9311C060
:101BD0001C920FC06F577040ED017B836A8383E0D6
:101BE0008C9387E0220F331F441F551F8A95D1F72E
:101BF0005064FD012483358346835783DF91CF9161
:101C00000895CF93DF93DC01FB019C91923008F49F
:101C100046C08081823008F442C0943049F4ED011E
:101C20006981843079F5818190E0861B91093CC0FF
:101C3000843021F0923031F48230A1F18181882307
:101C400071F52AC0ED0169818230E1F08181681768
:101C5000C9F4ED012A813B81828193818217930728
:101C60008CF028173907B4F0ED018C819D81AE818D
:101C7000BF812481358146815781281739074A075A
:101C80005B0718F4662341F40AC082179307A40780
:101C9000B50740F4662319F48FEF9FEF05C081E08C
:101CA00090E002C080E090E0DF91CF910895629FC4
:101CB000D001739FF001829FE00DF11D649FE00D44
:101CC000F11D929FF00D839FF00D749FF00D659FA5
:101CD000F00D9927729FB00DE11DF91F639FB00DA4
:101CE000E11DF91FBD01CF0111240895AA1BBB1BE3
:101CF00051E107C0AA1FBB1FA617B70710F0A61B0C
:101D0000B70B881F991F5A95A9F780959095BC012C
:101D1000CD010895A1E21A2EAA1BBB1BFD010DC027
:101D2000AA1FBB1FEE1FFF1FA217B307E407F5078B
:101D300020F0A21BB30BE40BF50B661F771F881F67
:101D4000991F1A9469F760957095809590959B01FD
:101D5000AC01BD01CF01089597FB092E05260ED0D9
:101D600057FD04D0D7DF0AD0001C38F450954095B9
:101D7000309521953F4F4F4F5F4F0895F6F790955F
:101D80008095709561957F4F8F4F9F4F08952F924B
:101D90003F924F925F926F927F928F929F92AF92FB
:101DA000BF92CF92DF92EF92FF920F931F93CF9348
:101DB000DF93CDB7DEB7CA1BDB0B0FB6F894DEBFDF
:101DC0000FBECDBF09942A88398848885F846E8405
:101DD0007D848C849B84AA84B984C884DF80EE804F
:101DE000FD800C811B81AA81B981CE0FD11D0FB658
:0E1DF000F894DEBF0FBECDBFED010895FFCF0A
:101DFE0000000000000000000001020203030303C4
:101E0E00040404040404040405050505050505057C
:101E1E00050505050505050506060606060606065C
:101E2E000606060606060606060606060606060644
:101E3E00060606060606060607070707070707072C
:101E4E000707070707070707070707070707070714
:101E5E000707070707070707070707070707070704
:101E6E0007070707070707070707070707070707F4
:101E7E0007070707070707070808080808080808DC
:101E8E0008080808080808080808080808080808C4
:101E9E0008080808080808080808080808080808B4
:101EAE0008080808080808080808080808080808A4
:101EBE000808080808080808080808080808080894
:101ECE000808080808080808080808080808080884
:101EDE000808080808080808080808080808080874
:101EEE000808080808080808080808080808080864
:081EFE0008080808080808089C
:00000001FF
