:060000000A128A119C2F78
:100DE800F5008312031385117508803E0A128A11D3
:100DF8006D270A128A110800FE00FE1F082F8313B0
:100E08007E188317000808000408FE0007308A00CF
:100E18007E08820700343134323433343434353484
:100E28003634373438343934303431343234333476
:100E38003434353436340034483465346C346C34E6
:100E48006F34203477346F3472346C346434003443
:100E58000A128A11A6270A128A1100300A128A1168
:100E6800F4260A128A1101300A128A114D270A1231
:100E78008A1140300A128A11F4260A128A11123095
:100E88000A128A114D270A128A11492F0A128A1149
:100E98000028F600831203138515612F76080A12BD
:100EA8008A1109270A128A110A128A116D270A1251
:100EB8008A110130F5007508F60776080A128A11BA
:100EC80009270A128A110038031D6B2F6C2F522F25
:100ED800080083120313A0000D30F400F40B722FE6
:100EE800831203132008F40004300310F40CFF3EAF
:100EF800031D792F74080F39880085148510200880
:100F08000F39880085148510080083120313851192
:100F180001300A128A116D270A128A110330F6006D
:100F28009730F500F50B962FF60B962F9B2F0800A0
:080F380083010A128A112C2F1B
:100F4C000630831603139F00031000300318013082
:100F5C00850003100030031801308800831203133E
:100F6C008511851005111430F8007930F700F70B56
:100F7C00BD2FF80BBD2FC22F033083120313880033
:100F8C00851485100730F8007D30F700F70BCC2F57
:100F9C00F80BCC2F83120313851485104230F70005
:100FAC00F70BD62F6400831203138514851042307F
:100FBC00F700F70BDF2F6400023083120313880055
:100FCC008514851028300A128A116D270A128A118D
:100FDC000F300A128A116D270A128A110A128A110D
:100FEC0089270A128A1106300A128A116D270A12F1
:040FFC008A1108004E
:00000001FF
