:100000001AC033C032C031C030C02FC02EC02DC086
:100010002CC02BC02AC029C028C027C026C025C09C
:1000200024C023C022C074757867726170686963E8
:10003000732E6F72670011241FBECFE5D4E0DEBFC0
:10004000CDBF10E0A0E6B0E0E0E2F3E002C0059032
:100050000D92A036B107D9F710E0A0E6B0E001C0DC
:100060001D92A036B107E1F70DC0CACF009749F045
:1000700034E6315026E42352F1F73323D1F70197C8
:10008000F5CF0895CFE5D4E0DEBFCDBF8CE01CD125
:10009000A59AAD9A7894B5D0C0E0D0E01DE1B1D07A
:1000A000BE0186E290E0BBD0AD9A86E990E0DEDF4B
:1000B000AD9886E990E0DADF1150219617FFEFCF77
:1000C000EBCF009711F00197FCCF089587FF02C096
:1000D000979A01C09798992786FF02C0C29A01C0DB
:1000E000C29885FF02C0C19A01C0C19884FF02C0B6
:1000F000C09A0895C0980895949A81E090E0E1DF55
:10010000949808951F93CF93C82F162F8F9ABA9A59
:10011000B99AB89ADBDF112311F0969A01C096982C
:10012000C498EADF8C2F992783FF02C0979A01C0F9
:10013000979882FF02C0C29A01C0C29881FF02C094
:10014000C19A01C0C19880FF02C0C09A01C0C09886
:10015000112311F0969A01C09698C498CDDF8F981C
:10016000BA98B998B898CF911F910895CF938F9866
:10017000BA98B998B8989698C49A949A81E090E001
:10018000A0DF879B02C0C0E801C0C0E08C2F992788
:10019000B29980649927B19980629927B09980615A
:1001A000C82F949881E090E08CDF949A81E090E0F1
:1001B00088DF8C2F9927879988609927B299846066
:1001C0009927B1998260C82F86B38170C82B949803
:1001D0008C2F992788235CF29927CF9108951F933C
:1001E000182FC4DF60E0812F8DDF1F910895982FB5
:1001F000662319F4892F805802C0892F8054EFDFBD
:10020000089581E0ECDF089582E0E9DF08951F930F
:10021000182FACDF61E0812F75DF1F910895EF92F9
:10022000FF921F93CF937C0190E0F7018491882384
:1002300029F09F5FF701E90FF11DF8CF63317105D8
:100240006CF4C0E013E1161BC11730F4C12F80E23B
:10025000DEDFC150E1F7C12F10E005C0162F1251AB
:10026000C0E0911768F0C23158F4F701E10FF11DB9
:100270008491882329F0CBDF1F5FCF5FC231A8F3C1
:10028000CF911F91FF90EF900895CF93DF93EC01F2
:100290008881882329F08991BADF88818823D9F75A
:1002A000DF91CF910895CF93DF93EC01FC0121966C
:1002B0008491882331F0ABDFFE012196849188235D
:1002C000D1F7DF91CF9108951F93182F8F9ABA9A83
:1002D000B99AB89A8E9ABC9A8C9A80E89EE3F1DE1D
:1002E00080E3F4DE09DF80E893E1EBDE80E3EEDE1D
:1002F00003DF80E490E0E5DE80E3E8DEFDDE80E41D
:1003000090E0DFDE80E2E2DEF7DE88E268DF88E0B0
:1003100066DF77DF86E063DF812F61DF1F9108955D
:00000001FF
