:060000000A128A11842E91
:100CE00064008001840A0406031900340406712E8E
:100CF000F1008312031385117108803E0A128A11D4
:100D00008A270A128A110800F501F601F701F80195
:100D1000831790308400E1300A128A1170260A127B
:100D20008A1183010A128A11C02E831203138511BE
:100D300001300A128A118A270A128A110330F2003E
:100D40009730F100F10BA22EF20BA22EA72E080075
:100D5000F0000430F2005330F1000130F102031DC5
:100D6000B22EB32EAD2E0130F202031DB82EB92ED5
:100D7000AB2E0130F002031DBE2EBF2EA92E08009F
:100D80000030F5000030F6000A128A11A6270A1278
:100D90008A110A128A1159270A128A117508013E0E
:100DA000F50076080318013E003EF600E8300A120E
:100DB0008A11A8260A128A11C92E0A128A1100283D
:100DC000F200831203138515F42E72080A128A1199
:100DD00009270A128A110A128A118A270A128A110D
:100DE0000130F1007108F20772080A128A1109270E
:100DF0000A128A110038031DFE2EFF2EE52E080070
:100E0000FE00FE1F082F83137E18831700080800BA
:100E10000408FE0007308A007E08820700344C3444
:100E200034343A3420343534363437343834393481
:100E30003034313432343334343435343634373476
:100E40003834393400344C3433343A342034353483
:100E5000363437343834393430343134323433344E
:100E60003434353436343734383400344C34323456
:100E70003A34203435343634373438343934303435
:100E80003134323433343434353436343734003456
:100E90004C3431343A342034353436343734383401
:100EA0003934303431343234333434343534363404
:100EB000003400300A128A1178260A128A113A3058
:100EC0000A128A11E0260A128A1140300A128A1187
:100ED00078260A128A1128300A128A11E0260A128C
:100EE0008A1114300A128A1178260A128A111530D2
:100EF0000A128A11E0260A128A1154300A128A1143
:100F000078260A128A1101300A128A11E0260A1282
:100F10008A11080083120313A4000D30F000F00BB7
:100F20008F2F831203132408F00004300310F00CF9
:100F3000FF3E031D962F70080F3988008514851019
:100F400024080F39880085148510080006308316A0
:100F500003139F00031000300318013085000310B5
:100F600000300318013088008312031385118510A7
:100F700005111430F4007930F300F30BBD2FF40B9E
:100F8000BD2FC22F033083120313880085148510F0
:100F90000730F4007D30F300F30BCC2FF40BCC2F93
:100FA00083120313851485104230F300F30BD62F00
:100FB000640083120313851485104230F300F30B91
:100FC000DF2F64000230831203138800851485101C
:100FD00028300A128A118A270A128A110C300A1242
:100FE0008A118A270A128A110A128A1195260A1270
:100FF0008A1106300A128A118A270A128A110800F9
:00000001FF
