:1000000012C02BC02AC029C028C027C026C025C0C6
:1000100024C023C022C021C020C01FC01EC01DC0DC
:100020001CC01BC01AC011241FBECFE5D4E0DEBF28
:10003000CDBF10E0A0E6B0E0E2E5F3E002C005903D
:100040000D92A036B107D9F710E0A0E6B0E001C0EC
:100050001D92A036B107E1F701C0D2CFC3E5D4E0CD
:10006000DEBFCDBF809134008062809334008091E8
:1000700035008F7D8093350080E090E0AAEFB3E4F7
:1000800089839A83AB83BC8320E030E04AE753E462
:1000900069817A818B819C81F4D0DC01CB018F83D3
:1000A0009887A987BA8720E030E040E85FE36F8156
:1000B000788589859A8595D088230CF005C081E0E4
:1000C00090E09E838D8318C020E03FEF4FE757E418
:1000D0006F81788589859A8587D018160CF003C0C2
:1000E0001E821D8209C06F81788589859A855ED0C0
:1000F000DC01CB019E838D838D819E819C878B87C4
:100100008B859C850197F1F79C878B8780913500C3
:1001100080628093350080E090E0AAEFB3E48F83A3
:100120009887A987BA8720E030E04AE753E46F81D7
:10013000788589859A85A5D0DC01CB0189839A834E
:10014000AB83BC8320E030E040E85FE369817A81E3
:100150008B819C8146D088230CF005C081E090E023
:100160009C878B8718C020E03FEF4FE757E46981F9
:100170007A818B819C8138D018160CF003C01C86C4
:100180001B8609C069817A818B819C810FD0DC013B
:10019000CB019C878B878B859C859E838D838D81EE
:1001A0009E810197F1F79E838D8361CF97FB47D0A6
:1001B0009F3738F0FEE9F91B982F872F762F6B2F8A
:1001C00005C05AC09695879577956795F150D0F7F9
:1001D0003EF490958095709561957F4F8F4F9F4F1E
:1001E00008950ED05EF004C00BD026F001C008D0F8
:1001F00019F020F48FEF089580E0089581E00895CC
:1002000097FB092E052600F8689410D0E89407FCA7
:1002100007C0621773078407950721F008F400945C
:10022000079498940895052E092607FA440F551F40
:100230005F3F79F0AA27A51708F051E04795880F8E
:10024000991F9F3F31F0BB27B91708F091E08795C0
:1002500008959F919F91112479C097FB880F991F52
:100260009F3F31F0BB27B91708F091E087950895BB
:100270009F919F9111246AC0662777278827992725
:100280000895D1DF01D04AC0992339F0552329F0D0
:100290009F575F57950F13F49AF1F1CF91589F3FF5
:1002A000E1F3629FA12D0F92BB27639FA00DB11DAB
:1002B000EE27729FA00DB11DEE1FAF93AA27649F7A
:1002C000B00DE11D739FB00DE11DAA1F6627829F2F
:1002D000B00DE11DA61F5527749FE00DA11D551FF0
:1002E000839FE00DA11D561F849FA00D511D852FDA
:1002F0007A2F6E2F1F900F9088231AF4939539F45C
:1003000025C0000C111CBB1F661F771F881F01280A
:1003100008959A95BB0F661F771F881F1124992394
:10032000A1F08823B2F79F3F59F0BB0F48F421F4A6
:10033000002011F460FF04C06F5F7F4F8F4F9F4F0D
:10034000881F9795879597F9089596CF9FEF80EC32
:0203500008950E
:00000001FF
