:1000000012C02BC02AC029C028C027C026C025C0C6
:1000100024C023C022C021C020C01FC01EC01DC0DC
:100020001CC01BC01AC011241FBECFE5D4E0DEBF28
:10003000CDBF10E0A0E6B0E0EAE6F3E002C0059034
:100040000D92A036B107D9F710E0A0E6B0E001C0EC
:100050001D92A036B107E1F701C0D2CFCF93DF9355
:10006000CDB7DEB768970FB6F894DEBF0FBECDBF31
:10007000A4E3B0E0E4E3F0E0808180628C93A5E348
:10008000B0E0E5E3F0E080818F7D8C9380E090E04C
:10009000AAEFB3E48F87988BA98BBA8B20E030E06E
:1000A0004AE753E46F85788989899A89F6D0DC011B
:1000B000CB018D8B9E8BAF8BB88F20E030E040E87A
:1000C0005FE36D897E898F89988D97D088230CF0A6
:1000D00005C081E090E09C8B8B8B18C020E03FEF47
:1000E0004FE757E46D897E898F89988D89D01816DE
:1000F0000CF003C01C8A1B8A09C06D897E898F8918
:10010000988D60D0DC01CB019C8B8B8B8B899C897B
:100110009E878D878D859E850197F1F79E878D87B8
:10012000A5E3B0E0E5E3F0E0808180628C9380E0BD
:1001300090E0AAEFB3E48B839C83AD83BE8320E081
:1001400030E04AE753E46B817C818D819E81A5D0AC
:10015000DC01CB0189879A87AB87BC8720E030E040
:1001600040E85FE369857A858B859C8546D0882346
:100170000CF005C081E090E098878F8318C020E0E4
:100180003FEF4FE757E469857A858B859C8538D0AA
:1001900018160CF003C018861F8209C069857A857D
:1001A0008B859C850FD0DC01CB0198878F838F8155
:1001B00098859A83898389819A810197F1F79A8337
:1001C00089835DCF97FB47D09F3738F0FEE9F91B55
:1001D000982F872F762F6B2F05C05AC0969587953D
:1001E00077956795F150D0F73EF49095809570958E
:1001F00061957F4F8F4F9F4F08950ED05EF004C0E2
:100200000BD026F001C008D019F020F48FEF08952C
:1002100080E0089581E0089597FB092E052600F8F7
:10022000689410D0E89407FC07C06217730784072E
:10023000950721F008F40094079498940895052EEA
:10024000092607FA440F551F5F3F79F0AA27A51723
:1002500008F051E04795880F991F9F3F31F0BB2769
:10026000B91708F091E0879508959F919F91112407
:1002700079C097FB880F991F9F3F31F0BB27B917B3
:1002800008F091E0879508959F919F9111246AC08D
:1002900066277727882799270895D1DF01D04AC09C
:1002A000992339F0552329F09F575F57950F13F481
:1002B0009AF1F1CF91589F3FE1F3629FA12D0F92E8
:1002C000BB27639FA00DB11DEE27729FA00DB11D2E
:1002D000EE1FAF93AA27649FB00DE11D739FB00D71
:1002E000E11DAA1F6627829FB00DE11DA61F55279D
:1002F000749FE00DA11D551F839FE00DA11D561F8A
:10030000849FA00D511D852F7A2F6E2F1F900F9067
:1003100088231AF4939539F425C0000C111CBB1FD7
:10032000661F771F881F012808959A95BB0F661FC7
:10033000771F881F11249923A1F08823B2F79F3FCC
:1003400059F0BB0F48F421F4002011F460FF04C001
:100350006F5F7F4F8F4F9F4F881F9795879597F9B6
:0A036000089596CF9FEF80EC0895FA
:00000001FF
