:060000000A128A11052816
:10000A0083010A168A11A02B0030FC000030FB0085
:10001A000030FA000030F9007308720471047004A9
:10002A000319182819286D28FD010314FD0D2B2822
:10003A000130F8000310F00DF10DF20DF30DF80B7D
:10004A001F280130F8007808FD072B28F31F2E28F7
:10005A002F281D28312831280130F8000310F90D06
:10006A00FA0DFB0DFC0DF80B332873087702031DFC
:10007A00482872087602031D482871087502031D74
:10008A00482870087402031C4B284C285C28700806
:10009A00F4027108031C710FF5027208031C720F37
:1000AA00F6027308031C730FF70279145C280130F7
:1000BA000310F30CF20CF10CF00CFF3E031D5D284B
:1000CA000130FD02031D6A286B2831286D286D282E
:1000DA007C08F3007B08F2007A08F1007908F00046
:1000EA007628080079287928831603132D08803A80
:1000FA00FF0080307F02031D84280D302C02031874
:10010A0087288828C228831603132C080A128A15FE
:10011A004F210A128A11831203135208C500530889
:10012A00C6005408C7008316031336088312031344
:10013A00C80083160313370883120313C9008316F2
:10014A000313380883120313CA000A128A150520FA
:10015A000A128A1183120313450883160313B60081
:10016A0083120313460883160313B700831203137B
:10017A00470883160313B800C228831603133508E9
:10018A00803AFF0080307F02031DCD280A303402F6
:10019A000318D028D12809298316031338083704ED
:1001AA0036040319D928DA2890293608831203134A
:1001BA00A70083160313370883120313A8008316B4
:1001CA000313380883120313A9000A168A11362466
:1001DA000A128A11831203132A08290428042704FD
:1001EA00031DF828F9289029831603133508803A45
:1001FA00FF0080307F02031D042902303402031CF1
:10020A000729082990290929831603132708F000CA
:10021A002808F1002908F2007030F3008930F40050
:10022A004030F5000A168A113E220A128A11031872
:10023A001F2920292929F73083160313B407031825
:10024A00B50AFF30B5073229F83083160313B4070D
:10025A000318B50AFF30B507322934080A128A157D
:10026A0041250A128A1183120313450883160313C0
:10027A00A70083120313460883160313A8008312E8
:10028A000313470883160313A9003608F00037083A
:10029A00F1003808F2002708F3002808F4002908BA
:1002AA00F5000A168A11AC260A128A1173088316F7
:1002BA000313A3007208A2007108A1007008A0002D
:1002CA003608F0003708F1003808F2002708F30072
:1002DA002808F4002908F5000A168A11DC240A12F3
:1002EA008A11730883160313A3007208A200710807
:1002FA00A1007008A00081292308B1002208B000DB
:10030A002108AF002008AE000030B6000030B70068
:10031A000030B800022A8316031336088312031327
:10032A00A70083160313370883120313A800831642
:10033A000313380883120313A9000A168A113624F4
:10034A000A128A11831203132A0883160313B100AF
:10035A0083120313290883160313B00083120313AD
:10036A00280883160313AF00831203132708831682
:10037A000313AE003108FB003008FA002F08F90019
:10038A002E08F8000A168A11EA200A128A11780839
:10039A0083120313D2007908D3007A08D400831693
:1003AA000313360883120313D50083160313370881
:1003BA0083120313D6008316031338088312031318
:1003CA00D7000A168A119F200A128A118312031370
:1003DA00520883160313B6008312031353088316B5
:1003EA000313B70083120313540883160313B800C8
:1003FA000030B4000030B500022ABA010314BA0D65
:10040A003A080A3A031D0A2A0B2A0D2A642A642A80
:10041A003A0883120313E60001300310E60DFF3E8B
:10042A00031D122A0310660D013E84000A168A1162
:10043A0000200A128A11E7000A168A1100200A12FD
:10044A008A11E8000A168A1100200A128A11E900A4
:10045A000A168A1100200A128A11EA006A0883160B
:10046A0003133102031D4F2A8312031369088316EB
:10047A0003133002031D4F2A8312031368088316DD
:10048A0003132F02031D4F2A8312031367088316CF
:10049A0003132E020318522A532A552A642A642A5D
:1004AA00013083120313E600660883160313BA07A2
:1004BA003A080A3A031D622A632A0D2A642A2C087A
:1004CA003A0783120313E600831603132D08031851
:1004DA002D0A003EBA1BFF3E83120313E700831660
:1004EA0003133408831203136607E8008316031301
:1004FA0035080318350A831203136707E9006808E9
:10050A0083160313B20283120313690883160313B3
:10051A00031CB303B3022D082C040319952A962A47
:10052A009C2AFF30B2070318B30AFF30B30703301F
:10053A002A0583120313E6000030831603132B05E2
:10054A0083120313E700670866040319AD2AAE2A6B
:10055A00B72AFF3083160313B2070318B30AFF3012
:10056A00B307B72A831603132A1DBC2ABD2A0F2BE9
:10057A00DF2ADF2A303083120313E60083160313BF
:10058A00390884008312031366088313800001303C
:10059A00E600660883160313B9070130A507031896
:1005AA00A60A0030A607FF30B2070318B30AFF30C5
:1005BA00B307DF2A3308803AFF0080307F02031D29
:1005CA00E82A013032020318EB2AEC2ABF2AB82B98
:1005DA00B82B0F2B203083120313E6008316031364
:1005EA0039088400831203136608831380000130DC
:1005FA00E600660883160313B9070130A507031836
:10060A00A60A0030A607FF30B2070318B30AFF3064
:10061A00B3070F2B831603133308803AFF00803089
:10062A007F02031D1A2B0130320203181D2B1E2BC9
:10063A00EF2A1F2B0330831603132A058312031391
:10064A00E6000030831603132B0583120313E70019
:10065A00670866040319322B332BB82B2D30E600BA
:10066A00831603133908840083120313660883135D
:10067A0080000130E600660883160313B9070130CB
:10068A00A5070318A60A0030A607B82BB82BB82B63
:10069A00003083120313A3000030A2000030A1002F
:1006AA000A30A000831603133A0883120313E600E4
:1006BA0001300310E60DFF3E031D5E2B0310660D8D
:1006CA00013E84000A168A1100200A128A11F000DB
:1006DA000A168A1100200A128A11F1000A168A11D2
:1006EA0000200A128A11F2000A168A1100200A1240
:1006FA008A11F300831603133108F7003008F60055
:10070A002F08F5002E08F4000A128A1109200A128D
:10071A008A11730883120313A7007208A6007108CE
:10072A00A5007008A4000A168A1176210A128A11F5
:10073A00831203132008303EE70083160313390897
:10074A008400831203136708831380000130E600D4
:10075A00660883160313B9070130A5070318A60A0A
:10076A000030A607B82BFF3083120313E600660891
:10077A0083160313BA073A08FF3A031DC52BC62B83
:10078A004D2BE82BE82B303083120313E600831637
:10079A000313390884008312031366088313800045
:1007AA000130E600660883160313B9070130A5076E
:1007BA000318A60A0030A607FF30B4070318B50AC3
:1007CA00FF30B507E82B3508803AFF0080307F02FA
:1007DA00031DF12B013034020318F42BF52BC82B1F
:1007EA00F62B831603132D08803AFF0080307F0210
:1007FA00031D012C09302C02031C042C052C0E2C81
:10080A00083083120313E600660883160313BA003E
:10081A00182C831603132C0883120313E6006608A8
:10082A0083160313BA003A0883120313E600E7019A
:10083A00E61BE703660883160313AC02831203134D
:10084A00670883160313031CAD03AD023A08031DA0
:10085A002F2C492C2E3083120313E6008316031320
:10086A003908840083120313660883138000013059
:10087A00E600660883160313B9070130A5070318B3
:10088A00A60A0030A607492C3A080A128A154125F9
:10089A000A128A11831203134508B8004608B900E0
:1008AA004708BA0083160313360883120313B500E8
:1008BA0083160313370883120313B6008316031330
:1008CA00380883120313B7000A168A11BE250A12C2
:1008DA008A11831203133508A7003608A8003708BF
:1008EA00A9000A168A1136240A128A1183120313DE
:1008FA002A0883160313B1008312031329088316E7
:10090A000313B00083120313280883160313AF00DE
:10091A0083120313270883160313AE005A2D0030DF
:10092A0083120313A3000030A2000030A1000A3092
:10093A00A000831603133A0883120313E60001305A
:10094A000310E60DFF3E031DA52C0310660D013EA4
:10095A0084000A168A1100200A128A11F0000A1667
:10096A008A1100200A128A11F1000A168A1100203F
:10097A000A128A11F2000A168A1100200A128A1132
:10098A00F300831603133108F7003008F6002F0826
:10099A00F5002E08F4000A128A1109200A128A1197
:1009AA00730883120313A7007208A6007108A50032
:1009BA007008A4000A168A1176210A128A11831273
:1009CA0003132008303EE700831603133908840016
:1009DA00831203136708831380000130E600660858
:1009EA0083160313B9070130A5070318A60A0030B6
:1009FA00A6073A0883120313E60001300310E60D36
:100A0A00FF3E031D032D0310660D013E84000A16E6
:100A1A008A1100200A128A11A0000A168A110020DF
:100A2A000A128A11A1000A168A1100200A128A11D2
:100A3A00A2000A168A1100200A128A11A30083163C
:100A4A000313310883120313A70083160313300814
:100A5A0083120313A600831603132F0883120313AA
:100A6A00A500831603132E0883120313A4000A1683
:100A7A008A1176210A128A11831203132308831614
:100A8A000313B10083120313220883160313B00061
:100A9A0083120313210883160313AF00831203136F
:100AAA00200883160313AE005A2DFF308312031356
:100ABA00E600660883160313BA073A08FF3A031DCD
:100ACA00672D682D942C8A2D8A2D303083120313BA
:100ADA00E600831603133908840083120313660899
:100AEA00831380000130E600660883160313B907F2
:100AFA000130A5070318A60A0030A607FF30AC0785
:100B0A000318AD0AFF30AD078A2D2D082C04031DEA
:100B1A008F2D902D6A2DCC2FCC2F831603132408EA
:100B2A0084008313000883120313E600840A000872
:100B3A00E700660883160313AE00831203136708DF
:100B4A0083160313AF000030AF1BFF30B000B100B3
:100B5A00023083120313E600660883160313A40700
:100B6A00B11FB82DB92DC92D0330AA040030AB042A
:100B7A00AE09AF09B009B109AE0A0319AF0A0319E0
:100B8A00B00A0319B10AC92DBA010314BA0D3A08F9
:100B9A000A3A031DD12DD22DD42D2B2E2B2E3A08F5
:100BAA0083120313E60001300310E60DFF3E031D16
:100BBA00D92D0310660D013E84000A168A11002001
:100BCA000A128A11E7000A168A1100200A128A11EB
:100BDA00E8000A168A1100200A128A11E9000A1688
:100BEA008A1100200A128A11EA006A08831603137E
:100BFA003102031D162E8312031369088316031389
:100C0A003002031D162E831203136808831603137A
:100C1A002F02031D162E831203136708831603136C
:100C2A002E020318192E1A2E1C2E2B2E2B2E0130B3
:100C3A0083120313E600660883160313BA073A08F9
:100C4A000A3A031D292E2A2ED42D2B2E33083204BC
:100C5A000319302E312E4B2E03302A05831203132B
:100C6A00E6000030831603132B0583120313E700F3
:100C7A00670866040319422E432E4B2EFF30831653
:100C8A000313B2070318B30AFF30B307831603131B
:100C9A003A0883120313E600E701E61BE703670835
:100CAA00803AE800831603133308803A8312031349
:100CBA006802031D662E8316031332088312031378
:100CCA0066020318692E6A2E802E831603133A08C9
:100CDA0083120313E600E701E61BE703660883169F
:100CEA000313B20283120313670883160313031C48
:100CFA00B303B302872E003083160313B200003009
:100D0A00B300872E2A1D8A2E8B2EE62E03302A0543
:100D1A0083120313E6000030831603132B05831294
:100D2A000313E7006708660403199C2E9D2EB52E4F
:100D3A002D30E60083160313390884008312031347
:100D4A006608831380000130E600660883160313E1
:100D5A00B9070130A5070318A60A0030A607B52E61
:100D6A0083160313330832040319BC2EBD2E3F2FFA
:100D7A00BE2E303083120313E6008316031339089C
:100D8A008400831203136608831380000130E6008F
:100D9A00660883160313B9070130A5070318A60AC4
:100DAA000030A607FF30B2070318B30AFF30B307B3
:100DBA0033083204031DE22EE32EBE2E3F2F3F2FAF
:100DCA003F2F330832040319EB2EEC2E142FED2E8D
:100DDA00203083120313E6008316031339088400B4
:100DEA00831203136608831380000130E600660845
:100DFA0083160313B9070130A5070318A60A0030A2
:100E0A00A607FF30B2070318B30AFF30B307330847
:100E1A003204031D112F122FED2E142F142F03301D
:100E2A002A0583120313E6000030831603132B05E9
:100E3A0083120313E700670866040319252F262F78
:100E4A003F2F2D30E60083160313390884008312DE
:100E5A0003136608831380000130E60066088316D0
:100E6A000313B9070130A5070318A60A0030A6071D
:100E7A003F2F3F2F831603133A08AC00AD01AC1B7A
:100E8A00AD03BA2F003083120313A3000030A2006F
:100E9A000030A1000A30A000831603132C08831225
:100EAA000313E60001300310E60DFF3E031D582F21
:100EBA000310660D013E84000A168A1100200A12E8
:100ECA008A11F0000A168A1100200A128A11F1000A
:100EDA000A168A1100200A128A11F2000A168A11C9
:100EEA0000200A128A11F300831603133108F7004F
:100EFA003008F6002F08F5002E08F4000A128A11AD
:100F0A0009200A128A11730883120313A7007208B0
:100F1A00A6007108A5007008A4000A168A11762195
:100F2A000A128A11831203132008303EE700670869
:100F3A0083160313BA003A0883120313E6008316D2
:100F4A00031339088400831203136608831380008D
:100F5A000130E600660883160313B9070130A507B6
:100F6A000318A60A0030A607BA2FFF30AC070318E9
:100F7A00AD0AFF30AD07FF302D06031DC62FFF3027
:100F8A002C06031DC92FCA2F472FCC2FCC2F0001A7
:100F9A00013883120313E2070001FF386207840055
:100FAA000A168A1100200A128A11E60066088316B8
:100FBA000313BA00BA08031DE32FE62F0A128A1593
:100FCA000A2BE82FE82F031083160313390884002D
:100FDA00003003180130831380002608831203139C
:100FEA00E301E30783160313250883120313E201BF
:060FFA00E207FF2F0800D2
:10100A00831203134508CB004608CC004708CD00DD
:10101A0003104C0D4D0DCE004E08D1004808CB00F0
:10102A004908CC004A08CD0003104C0D4D0DCE00E6
:10103A004E08D0005108031D2328342850085102B5
:10104A000318282829283C285103FF3A5007CB00C7
:10105A0019304B02031C322833283C28342848080C
:10106A00C5004908C6004A08C7004E294E2950083B
:10107A00031D4028502851085002031845284628C5
:10108A0051285003FF3A5107CB0019304B02031C79
:10109A004F28502851284E290630CB004B08CF0044
:1010AA00C71F582859285A28CF17CA1F5D285E28F3
:1010BA005F284F17C617FF30C505FF30C605003039
:1010CA00C705C917FF30C805FF30C9050030CA0572
:1010DA0050085102031872287328A4287428013072
:1010EA000310C80DC90DCA0DFF3E031D7528013036
:1010FA00D002500851060319832884289C280130FD
:10110A00CF024F080739031D8B288C2874289C2886
:10111A009C289C2801300310C70CC60CC50CFF3E46
:10112A00031D90280130CB004B08D1079C28510899
:10113A005006031DA128A2288F28DB28DB28510886
:10114A0050020318A928AA28DB28AB28013003106B
:10115A00C50DC60DC70DFF3E031DAC280130D102D7
:10116A00500851060319BA28BB28D3280130CF02E8
:10117A004F080739031DC228C328AB28D328D32810
:10118A00D32801300310CA0CC90CC80CFF3E031D3A
:10119A00C7280130CB004B08D007D3285108500686
:1011AA00031DD828D928C628DB28DB28CF1FDE282C
:1011BA00DF28F028FF30C506FF30C606FF30C70615
:1011CA000130C507003003180130C6070030031884
:1011DA000130C707F0284F1FF328F4280529FF30EC
:1011EA00C806FF30C906FF30CA060130C8070030FA
:1011FA0003180130C907003003180130CA0705294E
:10120A000310003003180130CF004508C80746080C
:10121A0003110318460A03191329C90747080311BA
:10122A000318470A03191A29CA07CA1F1D291E29A2
:10123A003229FF30C806FF30C906FF30CA0601301E
:10124A00C807003003180130C907003003180130FD
:10125A00CA07CF010314CF0D32294808F000490804
:10126A00F1004A08F2005108CB004B08F3004F087E
:10127A00CC004C08F4000A168A11AA220A128A150E
:10128A00700883120313C5007108C6007208C700EC
:10129A004E29080083120313E1006E306102031C19
:1012AA0057295829352A0330D5005508A4000A3091
:1012BA00F7000030F8006108D600D7015608F2009E
:1012CA005708F3006430F0000030F1000A168A1162
:1012DA00D4210A128A157108FA01FA077008F9016D
:1012EA00F9070A168A1125230A128A157708093E70
:1012FA000A168A15E1270A128A15293E84000A1657
:10130A008A1100200A128A1583120313B5000A16DD
:10131A008A1100200A128A15B6000A168A110020BC
:10132A000A128A15B7000330D8005808A40064309E
:10133A00F7000030F8006108D900DA015908F9000D
:10134A005A08FA000A168A1125230A128A157708FA
:10135A00123E0A168A15E1270A128A15293E8400C6
:10136A000A168A1100200A128A1583120313B8007A
:10137A000A168A1100200A128A15B9000A168A1159
:10138A0000200A128A15BA000A168A11BE250A1204
:10139A008A15831203133508DE003608DF00370882
:1013AA00E0000330D5005508A4006108D600D70133
:1013BA005608F2005708F3000A30F0000030F10036
:1013CA000A168A11D4210A128A1570080A168A1571
:1013DA00E1270A128A15293E84000A168A1100207A
:1013EA000A128A1583120313B5000A168A110020FD
:1013FA000A128A15B6000A168A1100200A128A15DC
:10140A00B7005E08B8005F08B9006008BA000A169B
:10141A008A11BE250A128A15831203133508DB00C6
:10142A003608DC003708DD000030B5000030B600B1
:10143A003F30B7005B08B8005C08B9005D08BA0025
:10144A000A168A11BE250A128A1583120313350851
:10145A00D2003608D3003708D400F92AF92AC52A57
:10146A000B306102031C3A2A3B2AC52A0330D500F5
:10147A005508A4006108D600D7015608F20057089B
:10148A00F3000A30F0000030F1000A168A11D42164
:10149A000A128A1570080A168A15E1270A128A158D
:1014AA00293E84000A168A1100200A128A1583121C
:1014BA000313B5000A168A1100200A128A15B6000B
:1014CA000A168A1100200A128A15B7000330D800BA
:1014DA005808A4000A30F7000030F8006108D90063
:1014EA00DA015908F9005A08FA000A168A1125235E
:1014FA000A128A157708093E0A168A15E1270A127E
:10150A008A15293E84000A168A1100200A128A15B1
:10151A0083120313B8000A168A1100200A128A15C8
:10152A00B9000A168A1100200A128A15BA000A1688
:10153A008A11BE250A128A15831203133508DE00A2
:10154A003608DF003708E0000030B5000030B6008A
:10155A003F30B7005E08B8005F08B9006008BA00FB
:10156A000A168A11BE250A128A1583120313350830
:10157A00D2003608D3003708D400F92AF92AC52A36
:10158A000030B5000030B6003F30B7000330D50058
:10159A005508A40061080A168A15E1270A128A1555
:1015AA00293E84000A168A1100200A128A1583121B
:1015BA000313B8000A168A1100200A128A15B90004
:1015CA000A168A1100200A128A15BA000A168A1106
:1015DA00BE250A128A15831203133508D20036086B
:1015EA00D3003708D400F92A080083160313B90078
:1015FA000030A5000030A600633083120313E60012
:10160A00660883160313A400B82B3A08253A03196F
:10161A000F2B102B2A2B3A0883120313E60083168A
:10162A0003133908840083120313660883138000A6
:10163A000130E600660883160313B9070130A507CF
:10164A000318A60A0030A607B82B0030B2000030F3
:10165A00B3000030AA000030AB003F2B3F2B8316AB
:10166A0003132A15013083120313E6006608E20702
:10167A003F2B4D2B8312620884000A168A11002020
:10168A000A128A15303A0319342B4D2B4D2B3F2B56
:10169A00620884000A168A1100200A128A150A169C
:1016AA008A1591270A128A15031C5C2B5D2BBC2B09
:1016BA00003083160313B2000030B300642B831288
:1016CA000313620884000A168A1100200A128A1576
:1016DA00E600E701831603133308F101F107320824
:1016EA00F001F0070A30F2000030F3000A168A11FE
:1016FA00BE200A128A158312031366087007E800CF
:10170A0067080318670A7107E9006808D03E83165C
:10171A000313B2008312031369080318013EFF3E44
:10172A0083160313B300013083120313E60066081D
:10173A00E207620884000A168A1100200A128A1532
:10174A000A168A1591270A128A150318AD2BAE2B91
:10175A00642BBC2BBC2BBC2B0A128A11E82F2B152D
:10176A00DA2BDA2BDA2B0A128A11CC2FDA2B0001A8
:10177A00013883120313E2070001FF38620784006D
:10178A000A168A1100200A128A1583160313BA0050
:10179A00003A0319B12B643A0319DA2B023A0319F6
:1017AA00B42B0F3A0319DA2BB82B00302A0583120F
:1017BA000313E6000730831603132B058312031362
:1017CA00E700670866040319EB2BEE2B0A128A114D
:1017DA00922D063083160313AC000030AD002408A6
:1017EA00840083130008B600840A0008B700840A3C
:1017FA000008B800033083120313E6006608831654
:10180A000313A4073608F0003708F1003808F2007D
:10181A000030F3000030F4000030F5000A168A1197
:10182A003E220A128A1503181B2C1C2C362C8316EE
:10183A0003133608F0003708F1003808F2000A16D8
:10184A008A1566270A128A15700883160313B600CA
:10185A007108B7007208B8000330AA040030AB045C
:10186A00362C003083160313B4000030B500380854
:10187A00370436040319422C452C0A128A11792896
:10188A00B63084008313000883120313E600840A27
:10189A000008E700840A0008E800840A0008E90052
:1018AA000F300310E90CE80CE70CE60CFF3E031DB1
:1018BA00562CFF306605EA0000306705EB006A081F
:1018CA00823E83160313B400831203136B080318B2
:1018DA00013EFF3E83160313B500FF30B407031819
:1018EA00B50AFF30B5070330F0000030F1003508C3
:1018FA00F301F3073408F201F2070A168A11BE202F
:10190A000A128A15710883160313B501B507700800
:10191A00B401B4070A30F7000030F8003508FA01BC
:10192A00FA073408F901F9070A168A1125230A1257
:10193A008A15780883160313B501B5077708B40129
:10194A00B407B51FA92CAA2CB12CFF30B407031871
:10195A00B50AFF30B507B12C3403FF3A0A128A15CB
:10196A0041250A128A1583120313450883160313A5
:10197A00A70083120313460883160313A8008312D1
:10198A000313470883160313A900360883120313A7
:10199A00B50083160313370883120313B6008316A0
:1019AA000313380883120313B70083160313270897
:1019BA0083120313B8008316031328088312031330
:1019CA00B90083160313290883120313BA000A16EF
:1019DA008A11BE250A128A15831203133508831643
:1019EA000313A70083120313360883160313A800F0
:1019FA0083120313370883160313A9002708F0007C
:101A0A002808F1002908F2000030F3008030F400C1
:101A1A003F30F5000A168A113E220A128A15031867
:101A2A00172D182D212DFF3083160313B407031821
:101A3A00B50AFF30B507422C831603132708F000B6
:101A4A002808F1002908F2000030F3002030F400E1
:101A5A004130F5000A168A113E220A128A15031C21
:101A6A00372D382D422C013083160313B40703187F
:101A7A00B50A0030B507422C83120313CD00CD1FDF
:101A8A00472D482DA52ECD09CD0A4D08803A123E84
:101A9A00031C502D512D0F2E0330C8004808A400F6
:101AAA000A30F7000030F8004D08F200F301F21B8B
:101ABA00F3036430F0000030F1000A168A11D421D1
:101ACA000A128A157108FA01FA077008F901F9076A
:101ADA000A168A1125230A128A157708093E0A1658
:101AEA008A15E1270A128A15293E84000A168A11E4
:101AFA0000200A128A1583120313B5000A168A11E6
:101B0A0000200A128A15B6000A168A1100200A1243
:101B1A008A15B7000330C9004908A4006430F700E9
:101B2A000030F8004D08F900FA01F91BFA030A1609
:101B3A008A1125230A128A157708123E0A168A156F
:101B4A00E1270A128A15293E84000A168A11002002
:101B5A000A128A1583120313B8000A168A11002082
:101B6A000A128A15B9000A168A1100200A128A1561
:101B7A00BA000A168A11BE250A128A15831203139D
:101B8A003508CA003608CB003708CC000330C80035
:101B9A004808A4004D08F200F301F21BF3030A30CF
:101BAA00F0000030F1000A168A11D4210A128A15AF
:101BBA0070080A168A15E1270A128A15293E840036
:101BCA000A168A1100200A128A1583120313B50015
:101BDA000A168A1100200A128A15B6000A168A11F4
:101BEA0000200A128A15B7004A08B8004B08B90043
:101BFA004C08BA000A168A11BE250A128A158312DF
:101C0A0003133508C5003608C6003708C700FF2F7A
:101C1A00FF2F832E4D08803A753E031C152E162E73
:101C2A00832E0330C8004808A4004D08F200F301CF
:101C3A00F21BF3030A30F0000030F1000A168A1191
:101C4A00D4210A128A1570080A168A15E1270A127F
:101C5A008A15293E84000A168A1100200A128A155A
:101C6A0083120313B5000A168A1100200A128A1574
:101C7A00B6000A168A1100200A128A15B700033024
:101C8A00C9004908A4000A30F7000030F8004D08DE
:101C9A00F900FA01F91BFA030A168A1125230A1216
:101CAA008A157708093E0A168A15E1270A128A1543
:101CBA00293E84000A168A1100200A128A15831204
:101CCA000313B8000A168A1100200A128A15B900ED
:101CDA000A168A1100200A128A15BA000A168A11EF
:101CEA00BE250A128A15831203133508C500360861
:101CFA00C6003708C700FF2FFF2F832E0330C80006
:101D0A004808A4004D080A168A15E1270A128A15FE
:101D1A00293E84000A168A1100200A128A158312A3
:101D2A000313C5000A168A1100200A128A15C60072
:101D3A000A168A1100200A128A15C700FF2FFF2FE0
:101D4A004D08803A123E031CAB2EAC2E6A2F03308C
:101D5A00C8004808A4000A30F7000030F8004D080F
:101D6A00F200F301F21BF3036430F0000030F100DB
:101D7A000A168A11D4210A128A157108FA01FA0779
:101D8A007008F901F9070A168A1125230A128A1519
:101D9A007708093E0A168A15E1270A128A15503E63
:101DAA0084000A168A1100200A128A158312031364
:101DBA00B5000A168A1100200A128A15B6000A16F8
:101DCA008A1100200A128A15B7000330C90049088F
:101DDA00A4006430F7000030F8004D08F900FA0159
:101DEA00F91BFA030A168A1125230A128A1577089B
:101DFA00123E0A168A15E1270A128A15503E8400F5
:101E0A000A168A1100200A128A1583120313B800CF
:101E1A000A168A1100200A128A15B9000A168A11AE
:101E2A0000200A128A15BA000A168A11BE250A1259
:101E3A008A15831203133508CA003608CB003708FF
:101E4A00CC000330C8004808A4004D08F200F30192
:101E5A00F21BF3030A30F0000030F1000A168A116F
:101E6A00D4210A128A1570080A168A15E1270A125D
:101E7A008A15503E84000A168A1100200A128A1511
:101E8A0083120313B5000A168A1100200A128A1552
:101E9A00B6000A168A1100200A128A15B7004A08E3
:101EAA00B8004B08B9004C08BA000A168A11BE25B8
:101EBA000A128A15831203133508C5003608C600AC
:101ECA003708C700FF2FFF2FDE2F4D08803A753ED7
:101EDA00031C702F712FDE2F0330C8004808A4009E
:101EEA004D08F200F301F21BF3030A30F000003050
:101EFA00F1000A168A11D4210A128A1570080A16E4
:101F0A008A15E1270A128A15503E84000A168A1198
:101F1A0000200A128A1583120313B5000A168A11C1
:101F2A0000200A128A15B6000A168A1100200A121F
:101F3A008A15B7000330C9004908A4000A30F7001F
:101F4A000030F8004D08F900FA01F91BFA030A16E5
:101F5A008A1125230A128A157708093E0A168A1554
:101F6A00E1270A128A15503E84000A168A110020B7
:101F7A000A128A1583120313B8000A168A1100205E
:101F8A000A128A15B9000A168A1100200A128A153D
:101F9A00BA000A168A11BE250A128A158312031379
:101FAA003508C5003608C6003708C700FF2FFF2FBF
:101FBA00DE2F0330C8004808A4004D080A168A1507
:101FCA00E1270A128A15503E84000A168A11002057
:101FDA000A128A1583120313C5000A168A110020F1
:101FEA000A128A15C6000A168A1100200A128A15D0
:101FFA00C700FF2F080010308A000408840A8207ED
:10200A00003401340034003400340A34003400341B
:10201A0000346434003400340034E83403340034C7
:10202A0000341034273400340034A03486340134A8
:10203A000034403442340F340034803496349834B7
:10204A0000340034E134F53405340034CA349A34A7
:10205A003B34003480343F34CD34CC343D34D7342F
:10206A0023343C34123483343A34B734D1343834D8
:10207A00C63427343734383486343534C034D63409
:10208A003334CC342B343234703489343034E7343A
:10209A00DB342E34E5343C341E344234A2340D345D
:1020AA00003480343F340034203441340034C8349E
:1020BA00423400347A34443440341C344634503484
:1020CA00C3344734243474344934973418344B3481
:1020DA00BC34BE344C346B346E344E340334153451
:1020EA0050347934AD346034F334493471342034A3
:1020FA002034203420342034203420342034203436
:10210A0020342034253430343534643400345434A3
:10211A0065346D3470342E3431343D3425343034E2
:06212A003334663400347A
:10213E00803083120313D4065508C5005608C60016
:10214E005708C7005208C8005308C9005408CA00EF
:10215E000A128A1505200A168A11831203134508DE
:10216E00D2004608D3004708D400BD28080000302E
:10217E00F4000030F500C328701CC628C728CD28EF
:10218E007208F4070318F50A7308F50701300310F7
:10219E00F20DF30DFF3E031DCE2801300310F10C9E
:1021AE00F00CFF3E031DD52871087004031DE028B6
:1021BE00E128C328E2287508F101F1077408F0013F
:1021CE00F007E92808008E30FC007C08FD00FD2891
:1021DE0001300310FB0CFA0CF90CF80CFF3E031D3A
:1021EE00F0280130FC007C08FD07FD28FF307B0540
:1021FE00031D02290329EF2804297808F000790825
:10220E00F1007A08F2007D08FC007C08F300031050
:10221E00003003180130F4000A168A11AA220A1699
:10222E008A117008F8007108F9007208FA001F2967
:10223E0008000630831603139F000330F400740861
:10224E00F60085018801831203138511851005118F
:10225E001430F5007930F400F40B3329F50B3329E3
:10226E0038297608831203138800851485100730E9
:10227E00F5007D30F400F40B4229F50B4229831250
:10228E000313851485104230F400F40B4C296400BE
:10229E0083120313851485104230F400F40B552974
:1022AE0064000230831203138800851485102830D1
:1022BE000A168A15AA270A168A110C300A168A15CA
:1022CE00AA270A168A110A168A157E270A168A1155
:1022DE0006300A168A15AA270A168A1108008312D2
:1022EE000313230822042104200403197F298029C3
:1022FE00CA29A9010314A90D92290130A8000310BF
:10230E00A00DA10DA20DA30DA80B86290130A800CA
:10231E002808A9079229A31F952996298429982967
:10232E00982923082702031DA62922082602031D29
:10233E00A62921082502031DA62920082402031C14
:10234E00A929AA29B9292008A4022108031C210FB2
:10235E00A5022208031C220FA6022308031C230F2A
:10236E00A702B92901300310A30CA20CA10CA00CDA
:10237E00FF3E031DBA290130A902031DC729C82932
:10238E009829CA29CA292708A3002608A2002508C9
:10239E00A1002408A000D329080003100030031860
:1023AE000130F600F31FDC29DD29E629F209F309D5
:1023BE00F20A0319F30AF6010314F60DE629F11FCA
:1023CE00E929EA29F029F009F109F00A0319F10ABD
:1023DE00F029710870040319F529F6292C2AF50144
:1023EE000314F50D062A01300310F00DF10DFF3E1A
:1023FE00031DFB290130F4007408F507062AF11FAE
:10240E00092A0A2AFA290C2A0C2A71087302031DBA
:10241E00122A70087202031C152A162A1D2A700829
:10242E00F2027108031CF303F3021D2A013003109C
:10243E00F10CF00CFF3E031D1E2A0130F502031DA8
:10244E00292A2A2A0C2A2C2A2C2A7608031D302AFD
:10245E00362AF209F309F20A0319F30A362A730827
:10246E00F101F1077208F001F0073D2A0800F21F92
:10247E00412A422A682A0030F6000030F7008030E8
:10248E00F8007009F9007109FA007209FB00F90AE7
:10249E000319FA0A0319FB0A7908F6077A080318D2
:1024AE007A0F5A2A5B2AF7077B0803187B0F602ADC
:1024BE00612AF8077608F0007708F1007808F20034
:1024CE00682AF51F6B2A6C2A922A0030F60000301B
:1024DE00F7008030F8007309F9007409FA007509E5
:1024EE00FB00F90A0319FA0A0319FB0A7908F60721
:1024FE007A0803187A0F842A852AF7077B080318AF
:10250E007B0F8A2A8B2AF8077608F3007708F400E7
:10251E007808F500922A8030F2068030F5067508AC
:10252E007202031DA02A74087102031DA02A7308EB
:10253E0070020318A32AA42AA62A0310A92A031498
:10254E00A92AA92A08007308031DAE2AB62A720802
:10255E0071047004031DB42AB52ACC2AB62A0030A1
:10256E00F0000030F1000030F200242B242BCC2A96
:10257E000130F5007508F30701300310F20CF10C71
:10258E00F00CFF3E031DC42ACC2AFE307205031D3B
:10259E00D12AD22ABF2AEA2AEA2A0130F500750882
:1025AE00F3070130F007003003180130F107003057
:1025BE0003180130F20701300310F20CF10CF00C8D
:1025CE00FF3E031DE32AFF307205031DEF2AF02A9A
:1025DE00D42AFD2AFD2A0130F30201300310F00D3A
:1025EE00F10DF20DFF3E031DF52AFD2AF11F002B02
:1025FE00012BF22A7318042B052B0B2BFF30F00541
:10260E007F30F105FF30F2050310F30C7308F5006F
:10261E00F601F70110300310F50DF60DF70DFF3E24
:10262E00031D122B7508F0047608F1047708F204E6
:10263E007408031D232B242BF217080003100030FF
:10264E000318013083120313A100F81F2F2B302B18
:10265E00392BF709F809F70A0319F80AA10103142F
:10266E00A10D392BFA1F3C2B3D2B462BF909FA09EC
:10267E00F90A0319FA0A0130FB007B08A1060030A3
:10268E00A2000030A3007808770403194F2B502BBB
:10269E008E2BA0010314A00D602B01300310F70D3B
:1026AE00F80DFF3E031D552B0130FB007B08A007E4
:1026BE00602BF81F632B642B542B662B662B01307B
:1026CE000310A20DA30DFF3E031D672B78087A029F
:1026DE00031D732B77087902031C762B772B7F2B28
:1026EE007708F9027808031CFA03FA0222147F2BEA
:1026FE0001300310F80CF70CFF3E031D802B013048
:10270E00A002031D8B2B8C2B662B8E2B8E2B210860
:10271E00031D922B982BA209A309A20A0319A30A3F
:10272E00982B2308F801F8072208F701F7079F2BCB
:10273E0008000A168A1120210A168A1100300A167C
:10274E008A1572270A168A11003083160313CE00DB
:10275E009430CF004130D000873083120313EC0049
:10276E006C08E200831603134E0883120313E30072
:10277E00831603134F0883120313E4008316031307
:10278E00500883120313E500BB300A128A15FA2291
:10279E000A168A1183120313630883160313CD01DD
:1027AE00CD0783120313620883160313CC01CC07E3
:1027BE00BB300A168A15C4270A168A1140300A162B
:1027CE008A1572270A168A11773083120313EC00CA
:1027DE006C08E20083160313520883120313E401FC
:1027EE00E40783160313510883120313E301E3076F
:1027FE00BB300A128A15FA220A168A1183120313A3
:10280E00630883160313CD01CD07831203136208E9
:10281E0083160313CC01CC07BB300A168A15C427C6
:10282E000A168A11033083120313EE008830ED006E
:10283E005630EC00EC0B212CED0B212CEE0B212C49
:10284E00831603135108013ED10052080318013EAE
:10285E00003ED200A52BA52B0A128A110028831246
:10286E0003132708AB002808AC002908AD0003109D
:10287E002C0D2D0DAE002E08B400B408031D482CEF
:10288E00492C532C0030AA000030A9000030A800BB
:10289E000030A700DB2CDB2C2708AB002808AC008F
:1028AE002908AD0017300310AD0CAC0CAB0CFF3E7D
:1028BE00031D5A2C2B08AE002E08AF00A817FF30B0
:1028CE00A705FF30A8050030A9052708B000280885
:1028DE00B1002908B200B3018E30B402B41F782CB7
:1028EE00792C9E2C3408803A8F3E03187F2C802C36
:1028FE008B2C0030AA000030A9000030A800003058
:10290E00A700DB2CDB2C8B2C01300310B30CB20C8C
:10291E00B10CB00CFF3E031D8C2C0130AB002B080C
:10292E00B407031D9B2C9C2C8B2CC22CC22C183054
:10293E003402031CA32CA42CBB2C0030AA000030A4
:10294E00A9000030A8000030A700DB2CDB2CBB2C2C
:10295E000130AB000310B00DB10DB20DB30DAB0BCA
:10296E00B12C0130B402BB2CB408031DBF2CC02CFB
:10297E00AF2CC22CC22C2F08031DC62CD22CB00992
:10298E00B109B209B309B00A0319B10A0319B20A9F
:10299E000319B30AD22C3308AA003208A900310851
:1029AE00A8003008A700DB2C08007008F60071089C
:1029BE00F7007208F8000310770D780DF90079080A
:1029CE0083120313A500A508031DEE2CEF2CF92C82
:1029DE000030F3000030F2000030F1000030F00063
:1029EE00BD2DBD2D7308F6007408F7007508F800AC
:1029FE000310770D780DF9007908A400A408031DC3
:102A0E00092D0A2D142D0030F3000030F200003095
:102A1E00F1000030F000BD2DBD2DF117FF30F00597
:102A2E00FF30F1050030F205F417FF30F305FF30EB
:102A3E00F4050030F5050030A3000030A200003090
:102A4E00A1000030A0007F30A50298302407F600C8
:102A5E007608A5021830F6007608A400362D01304F
:102A6E00F6000310A00DA10DA20DA30DF60B382D2F
:102A7E0075087202031D492D74087102031D492D3C
:102A8E0073087002031C4C2D4D2D592D7308F00246
:102A9E007408031C740FF1027508031C750AF20208
:102AAE002014592D01300310F00DF10DF20DFF3EE3
:102ABE00031D5A2D0130A402031D662D672D362DE0
:102ACE00A51F6A2D6B2D902D2508803A973E031871
:102ADE00712D722D7D2D0030F3000030F20000308C
:102AEE00F1000030F000BD2DBD2D7D2D0130031005
:102AFE00A30CA20CA10CA00CFF3E031D7E2D0130D9
:102B0E00F6007608A507031D8D2D8E2D7D2DB42D77
:102B1E00B42D18302502031C952D962DAD2D0030A9
:102B2E00F3000030F2000030F1000030F000BD2D57
:102B3E00BD2DAD2D0130F6000310A00DA10DA20D7F
:102B4E00A30DF60BA32D0130A502AD2DA508031D77
:102B5E00B12DB22DA12DB42DB42D2308F3002208D2
:102B6E00F2002108F1002008F000BD2D08008312AC
:102B7E0003133508BB003608BC003708BD00031030
:102B8E003C0D3D0DBE003E08BF00BF08031DD02DFD
:102B9E00D12DD92D0030B5000030B6000030B70071
:102BAE00AB2EAB2E3808BB003908BC003A08BD006E
:102BBE0003103C0D3D0DBE003E08C400C408031DAD
:102BCE00E92DEA2DF22D0030B5000030B6000030B0
:102BDE00B700AB2EAB2E44087B3EBB003B08BF07B5
:102BEE003508BB003608BC003708BD001030031096
:102BFE00BD0CBC0CBB0CFF3E031DFE2D3B08BE00E6
:102C0E003E08C4003808BB003908BC003A08BD00B5
:102C1E0010300310BD0CBC0CBB0CFF3E031D102E60
:102C2E003B08BE003E08C4068030BB003B08C4050E
:102C3E00B617B917FF30B805FF30B9050030BA0521
:102C4E000030C0000030C1000030C2000730BB00B1
:102C5E003B08C300322E351C352E362E472E380833
:102C6E00C007390803110318390A03193F2EC1078B
:102C7E003A08031103183A0A0319462EC207472EC3
:102C8E0001300310B70CB60CB50CFF3E031D482ED9
:102C9E0001300310B80DB90DBA0DFF3E031D502EB5
:102CAE000130C302031D5C2E5D2E322E5E2E0930C6
:102CBE00BB003B08C300632E351C662E672E782E94
:102CCE003808C007390803110318390A0319702E82
:102CDE00C1073A08031103183A0A0319772EC207DF
:102CEE00782E01300310B70CB60CB50CFF3E031D49
:102CFE00792E01300310C20CC10CC00CFF3E031D17
:102D0E00812E0130C302031D8D2E8E2E632E8F2E2B
:102D1E004008F0004108F1004208F2003F08BB00F5
:102D2E003B08F3004408BC003C08F4000A168A1164
:102D3E00AA220A168A11700883120313B5007108AD
:102D4E00B6007208B700AB2E080070308400000881
:102D5E00F600840A0008F700840A0008F800840AC6
:102D6E000008F9000310780D790DFA007A08831225
:102D7E000313A500A508031DC52EC62ED02E0030A8
:102D8E00F3000030F2000030F1000030F000FF2FB1
:102D9E00FF2F733084000008F600840A0008F70045
:102DAE00840A0008F800840A0008F9000310780D60
:102DBE00790DFA007A08A400A408031DE72EE82E68
:102DCE00F22E0030F3000030F2000030F10000303F
:102DDE00F000FF2FFF2F7030840000308004840A33
:102DEE0000308004840A80308004840A003080041D
:102DFE0070308400FF308005840AFF308005840A1D
:102E0E00FF308005840A0030800573308400003066
:102E1E008004840A00308004840A80308004840A8E
:102E2E000030800473308400FF308005840AFF3048
:102E3E008005840AFF308005840A0030800500304A
:102E4E00A3000030A2000030A1000030A0007F30AF
:102E5E00A502A0302407F6007608A5022030F60061
:102E6E007608A4003A2F0130F6000310A00DA10D34
:102E7E00A20DA30DF60B3C2F733084000008F60054
:102E8E00840A0008F700840A0008F800840A000883
:102E9E00F900703084000008FA00840A0008FB0074
:102EAE00840A0008FC00840A0008FD0079087D02EF
:102EBE00031D6B2F78087C02031D6B2F77087B0296
:102ECE00031D6B2F76087A02031C6E2F6F2F922F25
:102EDE00733084000008F600840A0008F700840AA4
:102EEE000008F800840A0008F900703084007608A3
:102EFE008002840A7708031C770F8002840A780800
:102F0E00031C780F8002840A7908031C790A800258
:102F1E000330840220147030840001300310800DC1
:102F2E00840A800D840A800D840A800D8403840334
:102F3E008403FF3E031D952F0130A402031DA82F0D
:102F4E00A92F3A2FA51FAC2FAD2FD22F2508803ACF
:102F5E009F3E0318B32FB42FBF2F0030F300003065
:102F6E00F2000030F1000030F000FF2FFF2FBF2FD6
:102F7E0001300310A30CA20CA10CA00CFF3E031DEC
:102F8E00C02F0130F6007608A507031DCF2FD02FD6
:102F9E00BF2FF62FF62F20302502031CD72FD82F48
:102FAE00EF2F0030F3000030F2000030F10000305F
:102FBE00F000FF2FFF2FEF2F0130F6000310A00DB2
:102FCE00A10DA20DA30DF60BE52F0130A502EF2FDB
:102FDE00A508031DF32FF42FE32FF62FF62F23084A
:102FEE00F3002208F2002108F1002008F000FF2F64
:022FFE000800C9
:103ECC0072087104700403196C2F6D2F702F8030E1
:103EDC00F206702F712F0800F20083120313851164
:103EEC007208803E0A168A15AA270A168A15080037
:103EFC0083120313851101300A168A15AA270A1694
:103F0C008A150330F3009730F200F20B8B2FF30B72
:103F1C008B2F902F0800F100031000300318013094
:103F2C00F0003A30710203189C2F9D2FA72F3030D0
:103F3C007102031CA22FA32FA72FF0010314F00D65
:103F4C00A72F700CA92F0800F1000D30F000F00B1A
:103F5C00AD2F7108F00004300310F00CFF3E031D70
:103F6C00B22F70080F398312031388008514851043
:103F7C0071080F398800851485100800F30083122E
:103F8C0003138515D72F73088400831300080A16B2
:103F9C008A15AA270A168A150130F2007208F3074F
:103FAC00D72F7308840083138008031DDE2FDF2FA7
:103FBC00C92FE02F080083120313A6000310003052
:103FCC0003180130A500EA2F261CED2FEE2FF32F3E
:103FDC002408FC007C08A507F32F0310A40D031084
:103FEC00A60CA608031DFB2FFC2FEA2FFD2F25087E
:043FFC00FF2F08008B
:00000001FF
