:1000000048C062C061C0ADC6E5C57EC623C64FC646
:10001000B4C560C559C042C157C084C155C054C0A1
:1000200053C052C051C0303132333435363738398D
:1000300041424344454600000001000800400000E2
:1000400001000400000100080020004000800000C2
:100050000100041B5B25643B256448001B5B3F32A9
:10006000356C001B5B3F323568001B5B25646D00FF
:100070001B5B324A001B63004F46460D0A004F4E81
:100080000D0A000D0A48656C6C6F20415652210D17
:100090000A0011241FBECFE5D4E0DEBFCDBF10E0C3
:1000A000A0E6B0E0E0EFFFE002C005900D92A036C0
:1000B000B107D9F711E0A0E6B0E001C01D92A2316E
:1000C000B107E1F7F5D693C79BCFFC018FB7F89442
:1000D0007183608353834283178216821582148250
:1000E0008FBF0895CF93DF93DC014FB7F894EC01F5
:1000F0008C819D81892B11F4E0E01CC0FD0186817B
:100100009781ED91FC911197E80FF91FE08101961D
:10011000ED019F838E832A813B818217930720F014
:10012000821B930B9F838E83ED018C819D810197B0
:100130009D838C834FBF8E2F90E0DF91CF910895E8
:10014000FC014FB7F8948481958168177907B0F462
:1001500086819781860F971F9783868322813381BB
:100160008217930720F0821B930B978386838481E9
:100170009581861B970B9583848302C01582148218
:100180004FBF0895FC01CB014FB7F894268137810A
:1001900062817381820F931FD9D60190F081E02D87
:1001A000E80FF91F80814FBF90E008951F93CF9310
:1001B000DF93EC01162F4FB7F8942C813D816A81B3
:1001C0007B812617370798F48E819F81820F931FBA
:1001D000BDD6E881F981E80FF91F10838C819D81DC
:1001E00001969D838C834FBF8FEF90E003C04FBF7C
:1001F00080E090E0DF91CF911F910895FC018FB7CF
:10020000F8948FBF8281938124813581821B930B67
:100210000895FC018FB7F894158214828FBF08955A
:100220009093E1008093E0000895F3E0660F771F5C
:10023000881F991FFA95D1F79B01AC01220F331F3C
:10024000441F551F60507E4E85489F4F93D62150C6
:10025000304029B9232F332720BD089583EF90E044
:1002600008958CEF90E00895982F8091F2008823F4
:10027000E1F39CB91092F20008951092F8001092E8
:10028000F70008958091F7009091F800892B19F4F8
:100290008FEF90E0089580E090E008951F920F9214
:1002A0000FB60F9211242F933F934F935F936F9349
:1002B0007F938F939F93AF93BF93EF93FF936CB113
:1002C0008091E0009091E100892B39F0E091E0000D
:1002D000F091E100862F09950EC083EF90E066DF74
:1002E000882349F48091040190910501019690932F
:1002F000050180930401FF91EF91BF91AF919F9110
:100300008F917F916F915F914F913F912F910F90BE
:100310000FBE0F901F901895682F8CEF90E046DF6E
:1003200090E008951F920F920FB60F9211242F9311
:100330003F934F935F936F937F938F939F93AF936D
:10034000BF93EF93FF938091FB00882369F0809126
:10035000000190910101892B29F08CEF90E0C2DE21
:100360008CB905C01092FB008FEF8093F200FF91D3
:10037000EF91BF91AF919F918F917F916F915F911D
:100380004F913F912F910F900FBE0F901F90189596
:10039000CF93DF93EC018091F5009091F600892BCB
:1003A00069F08091F7009091F800892B39F083EF84
:1003B00090E098DE88838FEF90E002C080E090E0CC
:1003C000DF91CF910895CF93DF93CDB7DEB721971B
:1003D0000FB6F894DEBF0FBECDBFCE010196D8DFB9
:1003E000882319F48FEF9FEF02C0898190E0219656
:1003F0000FB6F894DEBF0FBECDBFDF91CF91089549
:1004000040E450E060E670E083EF90E05EDE40E4C0
:1004100050E060EA70E08CEF90E057DE0895F0DF86
:100420001092E1001092E00088ED8AB960E875E270
:1004300080E090E0FADE8FEF8093F2001092FB00F4
:100440001092050110920401789408958FEF809323
:10045000FB008CEF90E046DE982F8091F20088231D
:10046000E1F39CB91092F20008959093E300809319
:10047000E20008951F93182F8A3031F4E091E200D2
:10048000F091E3008DE00995E091E200F091E30046
:10049000812F09951F910895CF93DF93EC01892B4C
:1004A00019F405C02196E6DF88818823D9F7DF910A
:1004B000CF910895EF92FF920F931F93CF93DF9305
:1004C0007A010097C1F0EC01680F791FC617D707B2
:1004D00019F089918823D1F700E010E009C08881E4
:1004E000882311F0219601C080E2C4DF0F5F1F4F07
:1004F0000E151F05A1F7DF91CF911F910F91FF906E
:10050000EF900895CF93DF93EC01892B11F406C08F
:10051000B1DFFE01219684918823D1F7DF91CF913D
:1005200008958AE0A7DF0895E82FF0E0EF70F070FB
:10053000EA5DFF4FE4918E2F9DDF08951F93182FE2
:1005400082958F70F1DF812FEFDF1F9108950F9358
:100550001F938C01812F9927F1DF802FEFDF1F91EF
:100560000F910895EF92FF920F931F937B018C01DF
:10057000C801AA27BB27EBDFC701E9DF1F910F9155
:10058000FF90EF9008952F923F924F925F926F925B
:100590007F928F929F92AF92BF92CF92DF92EF9213
:1005A000FF920F931F93CF93DF93CDB7DEB7A4973E
:1005B0000FB6F894DEBF0FBECDBF4BA32CA327010F
:1005C0003801442351F017FF08C0EE24FF248701AF
:1005D000E418F5080609170902C08301720169A32E
:1005E00090E02BA1211191E0E9A1E91BE150EAA3E0
:1005F00018A2882E992487FC9094A92CB92CC801A4
:10060000B701A5019401B6D4FB01EF70F070EA5D6B
:10061000FF4F64916F8FC801B701A5019401AAD45F
:1006200069017A012EE1222E312C2C0E3D1E20C0B4
:10063000C114D104E104F104A9F0C701B601A50178
:10064000940198D4FB01EF70F070EA5DFF4F649164
:10065000F1016083C701B601A50194018BD4690142
:100660007A0103C02CA1F1012083089421083108EC
:1006700081010F5F1F4F8AA181508AA38F3FC1F66E
:100680009BA19923B1F077FE03C081018DE20AC0DE
:10069000411451046104710419F081018BE202C01C
:1006A000810180E2F801808304C0F80181918F010B
:1006B000E1DEF9A1F150F9A3FF3FB9F7A4960FB617
:1006C000F894DEBF0FBECDBFDF91CF911F910F9188
:1006D000FF90EF90DF90CF90BF90AF909F908F9062
:1006E0007F906F905F904F903F902F9008959F92D2
:1006F000AF92BF92CF92DF92EF92FF920F931F9330
:10070000CF93DF93CDB7DEB722970FB6F894DEBF55
:100710000FBECDBF9888C988DA88CE0143969A83E8
:10072000898304C0882309F465C0A4DE96012F5F85
:100730003F4F992021F0F6016901849103C0F60131
:1007400080816901853271F72F5F3F4F992021F039
:10075000F6016901849103C0F60180816901843644
:10076000A1F0883719F0833601F707C0E12C60E16A
:10077000F62E50E1A52EB12C0FC0E981FA813296F8
:10078000FA83E98332978081D0CF40E1E42E47E2BB
:10079000F42E3AE0A32EB12CE981FA813296FA8345
:1007A000E983129102918436A1F417FF0BC01095D2
:1007B00001951F4F8DE25EDE05C0C7016AE070E063
:1007C000C5D37B01F2E0EF16F10418F00E151F05FA
:1007D000A0F3C801B701BAD3CB01A6DEC801B701A7
:1007E000B5D38C01C701B501B1D37B01672B09F4E7
:1007F0009DCFEFCF80E090E022960FB6F894DEBF59
:100800000FBECDBFDF91CF911F910F91FF90EF9061
:10081000DF90CF90BF90AF909F900895089583B7D9
:10082000887F826083BF12BE89B7816089BF1092C2
:100830000601109207011092080110920901089513
:100840008EB5887F83608EBD1DBC1CBC89B784605B
:1008500089BF089585B5887F846085BD14BC89B73C
:10086000806489BF10920E0110920F011092100146
:1008700010921101089593B7987F982B93BF089514
:100880009EB5987F982B9EBD089595B5987F982B1F
:1008900095BD0895E3B7F0E0E770F070EE0FFF1F2D
:1008A000E95CFF4F859194910895EEB5F0E0E77013
:1008B000F070EE0FFF1FE95CFF4F85919491089552
:1008C000E5B5F0E0E770F070EE0FFF1FED5BFF4F56
:1008D000859194910895873040F4E82FF0E0EE0F71
:1008E000FF1FEC51FF4F718360830895873040F400
:1008F000E82FF0E0EE0FFF1FEC51FF4F1182108246
:100900000895EF92FF920F931F93CF93DF93EC0123
:1009100012B710920A0110920B0110920C01109262
:100920000D01B8DF9C0140E050E060E072E18AE731
:1009300090E042D3CA01B901693B2DE8720726E075
:10094000820720E0920770F427E2C131D20750F409
:100950009E0140E050E0DBD228EE33E040E050E082
:1009600009D321C028EE33E040E050E003D3CA01B0
:10097000B9019E0140E050E0CAD29B01AC0113C016
:1009800080910A0190910B01A0910C01B0910D0191
:1009900085B78F7885BF85B7806885BF889585B70F
:1009A0008F7785BF06C0210F311D411D511D790173
:1009B0008A0120910A0130910B0140910C01509164
:1009C0000D0182B790E0A0E0B0E0542F432F322F0A
:1009D0002227822B932BA42BB52B8E159F05A007C6
:1009E000B10770F2DF91CF911F910F91FF90EF90BF
:1009F00008951092060110920701109208011092BA
:100A00000901089560910601709107018091080124
:100A100090910901089510920E0110920F01109209
:100A2000100110921101089560910E0170910F0153
:100A300080911001909111010895893031F48FB5A2
:100A400082608FBD8FB58E7F0AC08A3019F48FB552
:100A5000826002C08FB58D7F8FBD8FB581608FBDE5
:100A60001BBC1ABC19BC18BC08952FB52E7F2FBD16
:100A70002FB522602FBD2EB528602EBD2EB520616A
:100A80002EBD97BD86BD1BBC1ABC19BC18BC0895F1
:100A90008FB580688FBD8FB58F7B8FBD08958FB563
:100AA00080628FBD8FB58F7E8FBD08958FB58F7794
:100AB0008FBD8FB58F7B8FBD08958FB58F7D8FBD17
:100AC0008FB58F7E8FBD08959BBD8ABD089599BD5A
:100AD00088BD08951F920F920FB60F9211242F9385
:100AE0003F934F935F936F937F938F939F93AF93B6
:100AF000BF93EF93FF938091060190910701A0911E
:100B00000801B09109010196A11DB11D8093060154
:100B100090930701A0930801B093090180910A0105
:100B200090910B01A0910C01B0910D010196A11DB6
:100B3000B11D80930A0190930B01A0930C01B09317
:100B40000D018091E4009091E500892B29F0E0915E
:100B5000E400F091E5000995FF91EF91BF91AF910D
:100B60009F918F917F916F915F914F913F912F91C5
:100B70000F900FBE0F901F9018951F920F920FB6F7
:100B80000F9211242F933F934F935F936F937F9313
:100B90008F939F93AF93BF93EF93FF938091E60062
:100BA0009091E700892B29F0E091E600F091E700B1
:100BB0000995FF91EF91BF91AF919F918F917F9197
:100BC0006F915F914F913F912F910F900FBE0F90BA
:100BD0001F9018951F920F920FB60F9211242F930A
:100BE0003F934F935F936F937F938F939F93AF93B5
:100BF000BF93EF93FF9380910E0190910F01A0910D
:100C00001001B09111010196A11DB11D80930E013B
:100C100090930F01A0931001B09311018091EE0009
:100C20009091EF00892B29F0E091EE00F091EF0018
:100C30000995FF91EF91BF91AF919F918F917F9116
:100C40006F915F914F913F912F910F900FBE0F9039
:100C50001F9018951F920F920FB60F9211242F9389
:100C60003F934F935F936F937F938F939F93AF9334
:100C7000BF93EF93FF938091E8009091E900892B57
:100C800029F0E091E800F091E9000995FF91EF91DA
:100C9000BF91AF919F918F917F916F915F914F9194
:100CA0003F912F910F900FBE0F901F9018951F929C
:100CB0000F920FB60F9211242F933F934F935F9390
:100CC0006F937F938F939F93AF93BF93EF93FF9314
:100CD0008091EA009091EB00892B29F0E091EA00E5
:100CE000F091EB000995FF91EF91BF91AF919F912A
:100CF0008F917F916F915F914F913F912F910F90C5
:100D00000FBE0F901F9018951F920F920FB60F9263
:100D100011242F933F934F935F936F937F938F9300
:100D20009F93AF93BF93EF93FF938091EC009091CB
:100D3000ED00892B29F0E091EC00F091ED00099590
:100D4000FF91EF91BF91AF919F918F917F916F91A3
:100D50005F914F913F912F910F900FBE0F901F9079
:100D600018951F920F920FB60F9211242F933F9355
:100D70004F935F936F937F938F939F93AF93BF93A3
:100D8000EF93FF938091F0009091F100892B29F06F
:100D9000E091F000F091F1000995FF91EF91BF9182
:100DA000AF919F918F917F916F915F914F913F9103
:100DB0002F910F900FBE0F901F90189580E090E03C
:100DC000FC01EE0FFF1FEC51FF4F118210820196C4
:100DD00087309105A9F723DD33DD3CDD7894089554
:100DE0008FB58D7F8FBD8FB58E7F8FBD8FB58F7780
:100DF0008FBD8FB58F7B8FBD8FB58F7D8FBD8FB52D
:100E00008F7E8FBD089570E07F936F9390E09F93E6
:100E10008F9383E590E09F938F9381E08F9367DCBE
:100E20008DB79EB707960FB6F8949EBF0FBE8DBFC5
:100E30000895882319F083E690E002C08CE590E0E5
:100E40009F938F9381E08F9352DC0F900F900F90C0
:100E5000089590E09F938F938AE690E09F938F93FD
:100E600081E08F9344DC0F900F900F900F900F90C4
:100E7000089580E790E046DB089585E790E042DB47
:100E80000895CDDA60E875E280E090E0CED984E3A1
:100E900091E0EBDA93DFF1DFECDF83E890E09F9302
:100EA0008F9381E08F9323DC0F900F900F90089524
:100EB0000F931F93CF93DF93E4DFA59A0EE710E023
:100EC000C8E7D0E0AD981F930F9381E08F930FDCBC
:100ED00028EE33E00F900F900F9088EC90E0019790
:100EE000F1F721503040C9F7AD9ADF93CF9381E0FD
:100EF0008F93FDDB28EE33E00F900F900F9088EC7E
:100F000090E00197F1F721503040C9F7DBCF629FA5
:100F1000D001739FF001829FE00DF11D649FE00DF1
:100F2000F11D929FF00D839FF00D749FF00D659F52
:100F3000F00D9927729FB00DE11DF91F639FB00D51
:100F4000E11DF91FBD01CF0111240895AA1BBB1B90
:100F500051E107C0AA1FBB1FA617B70710F0A61BB9
:100F6000B70B881F991F5A95A9F780959095BC01DA
:100F7000CD010895A1E21A2EAA1BBB1BFD010DC0D5
:100F8000AA1FBB1FEE1FFF1FA217B307E407F50739
:100F900020F0A21BB30BE40BF50B661F771F881F15
:100FA000991F1A9469F760957095809590959B01AB
:100FB000AC01BD01CF01089597FB092E05260ED087
:100FC00057FD04D0D7DF0AD0001C38F45095409567
:100FD000309521953F4F4F4F5F4F0895F6F790950D
:100FE0008095709561957F4F8F4F9F4F0895FFCFEC
:00000001FF
