:1000000014C03DC32CC02BC02AC029C028C027C0A3
:1000100026C025C024C023C022C021C020C01FC0CC
:100020001EC01DC01CC01BC01AC011241FBECFE5BE
:10003000D2E0DEBFCDBF10E0A0E6B0E0E2E3FAE040
:1000400002C005900D92A036B107D9F710E0A0E6E6
:10005000B0E001C01D92A136B107E1F7B1C3D0CF26
:10006000CF93DF93CDB7DEB710923500DF91CF91FC
:100070000895CF93DF93CDB7DEB78FEF8093350030
:10008000DF91CF910895CF93DF93CDB7DEB7269759
:100090000FB6F894DEBF0FBECDBF9A8389838981E6
:1000A0009A8101979C838B8381E090E00B8002C052
:1000B000880F991F0A94E2F7809590959E838D830F
:1000C000909135008D8189238093350026960FB657
:1000D000F894DEBF0FBECDBFDF91CF910895CF93CF
:1000E000DF93CDB7DEB726970FB6F894DEBF0FBE0D
:1000F000CDBF9A83898389819A8101979C838B8361
:1001000081E090E00B8002C0880F991F0A94E2F70B
:100110009E838D83909135008D81892B809335004E
:1001200026960FB6F894DEBF0FBECDBFDF91CF91FC
:100130000895CF93DF93CDB7DEB762970FB6F894EB
:10014000DEBF0FBECDBF69837A838B839C8381E042
:1001500090E09E838D838D819E81893091050CF086
:1001600053C089819A81AB81BC818F839887A9878D
:10017000BA8720E030E04AE753E46F8178858985CB
:100180009A850FD4DC01CB018D879E87AF87B88B12
:1001900020E030E040E85FE36D857E858F859889BB
:1001A00090D388230CF005C081E090E09C878B877A
:1001B00018C020E03FEF4FE757E46D857E858F85BF
:1001C000988982D318160CF003C01C861B8609C0C0
:1001D0006D857E858F85988940D3DC01CB019C8716
:1001E0008B878B859C859A8B898B89899A890197C6
:1001F000F1F79A8B898B8D819E8145DF8D819E8160
:1002000001969E838D83A7CF62960FB6F894DEBFCA
:100210000FBECDBFDF91CF910895CF93DF93CDB7C0
:10022000DEB762970FB6F894DEBF0FBECDBF69830D
:100230007A838B839C8388E090E09E838D838D817D
:100240009E8199230CF453C089819A81AB81BC8132
:100250008F839887A987BA8720E030E04AE753E484
:100260006F81788589859A859CD3DC01CB018D8748
:100270009E87AF87B88B20E030E040E85FE36D8574
:100280007E858F8598891DD388230CF005C081E079
:1002900090E09C878B8718C020E03FEF4FE757E442
:1002A0006D857E858F8598890FD318160CF003C055
:1002B0001C861B8609C06D857E858F859889CDD269
:1002C000DC01CB019C878B878B859C859A8B898BE6
:1002D00089899A890197F1F79A8B898B8D819E8103
:1002E000FEDE8D819E8101979E838D83A8CF6296CD
:1002F0000FB6F894DEBF0FBECDBFDF91CF9108954A
:10030000CF93DF93CDB7DEB72C970FB6F894DEBF4F
:100310000FBECDBF60E070E088EC92E40ADF80E0C1
:1003200090E0A8E4B2E489839A83AB83BC8320E0A5
:1003300030E04AE753E469817A818B819C8131D333
:10034000DC01CB018F839887A987BA8720E030E052
:1003500040E85FE36F81788589859A85B2D28823EA
:100360000CF005C081E090E09E838D8318C020E0F2
:100370003FEF4FE757E46F81788589859A85A4D24E
:1003800018160CF003C01E821D8209C06F8178858B
:1003900089859A8562D2DC01CB019E838D838D8114
:1003A0009E819C878B878B859C850197F1F79C8725
:1003B0008B8760E070E088EC92E42FDF2C960FB61C
:1003C000F894DEBF0FBECDBFDF91CF910895CF93DC
:1003D000DF93CDB7DEB724970FB6F894DEBF0FBE1C
:1003E000CDBF9A83898381E090E09C838B838B814E
:1003F0009C818930910584F42B813C8189819A818B
:10040000821793074CF08B819C813DDE8B819C8110
:1004100001969C838B83EBCF24960FB6F894DEBFB6
:100420000FBECDBFDF91CF910895CF93DF93CDB7AE
:10043000DEB724970FB6F894DEBF0FBECDBF9A8308
:10044000898388E090E09C838B832B813C81898128
:100450009A81281739074CF08B819C8114DE8B819F
:100460009C8101979C838B83F0CF24960FB6F894E0
:10047000DEBF0FBECDBFDF91CF910895CF93DF9345
:10048000CDB7DEB760970FB6F894DEBF0FBECDBF15
:100490009A83898381E090E09C838B832B813C81CC
:1004A00089819A81821793070CF49CC0E2DD80E079
:1004B00090E0A8ECB2E48D839E83AF83B88720E000
:1004C00030E04AE753E46D817E818F81988569D25F
:1004D000DC01CB018B879C87AD87BE8720E030E0B5
:1004E00040E85FE36B857C858D859E85EAD1882316
:1004F0000CF005C081E090E09A87898718C020E061
:100500003FEF4FE757E46B857C858D859E85DCD179
:1005100018160CF003C01A86198609C06B857C85F5
:100520008D859E859AD1DC01CB019A878987898543
:100530009A85988B8F878F8598890197F1F7988B8B
:100540008F878EDD80E090E0A8ECB2E48B879C87FB
:10055000AD87BE8720E030E04AE753E46B857C85B9
:100560008D859E851ED2DC01CB018D839E83AF835A
:10057000B88720E030E040E85FE36D817E818F81C5
:1005800098859FD188230CF005C081E090E0988B7E
:100590008F8718C020E03FEF4FE757E46D817E81E1
:1005A0008F81988591D118160CF003C0188A1F8688
:1005B00009C06D817E818F8198854FD1DC01CB018F
:1005C000988B8F878F8598899A87898789859A855F
:1005D0000197F1F79A8789878B819C8101969C838B
:1005E0008B835CCF60960FB6F894DEBF0FBECDBF95
:1005F000DF91CF910895CF93DF93CDB7DEB72697E4
:100600000FB6F894DEBF0FBECDBF69837A838B83AC
:100610009C8320E030E048EC52E469817A818B8150
:100620009C81D5D0DC01CB0120E030E040E051E4FA
:10063000BC01CD01B6D1DC01CB01BC01CD0128D17B
:10064000DC01CB01BC01CD0108D1DC01CB019E83D3
:100650008D838D819E81BBDE26960FB6F894DEBF1A
:100660000FBECDBFDF91CF910895CF93DF93CDB76C
:10067000DEB783E090E002DFDF91CF9108951F9213
:100680000F920FB60F9211242F933F934F935F93C6
:100690006F937F938F939F93AF93BF93EF93FF934A
:1006A000CF93DF93CDB7DEB788E090E0ECDCDF914D
:1006B000CF91FF91EF91BF91AF919F918F917F91DA
:1006C0006F915F914F913F912F910F900FBE0F90BF
:1006D0001F901895CF93DF93CDB7DEB78FEF809340
:1006E0003400C7DC83E08093550010923A001092EA
:1006F0003B00DF91CF910895CF93DF93CDB7DEB765
:1007000021970FB6F894DEBF0FBECDBF898310923C
:10071000600080912700982F907E89818F71892BAE
:10072000809327008091260080618093260080912D
:10073000260080648093260080912600992780748B
:100740009070009709F0F8CF80912400282F33276C
:10075000809125009927982F8827282B392BC901AC
:1007600021960FB6F894DEBF0FBECDBFDF91CF91BB
:100770000895CF93DF93CDB7DEB721970FB6F894E6
:10078000DEBF0FBECDBF89838981B6DF9695879581
:1007900096958795992721960FB6F894DEBF0FBEE0
:1007A000CDBFDF91CF910895CF93DF93CDB7DEB763
:1007B00060E070E088E492E41EDFDF91CF9108955D
:1007C000CFE5D2E0DEBFCDBF85DFEEDFFECFBBD011
:1007D00001D09EC0552359F0992369F09F575F5768
:1007E000951B33F442F4903811F4915805C0A8C019
:1007F00091589F3F09F4D3C0BB2711246217730798
:10080000840730F4660F771F881FBB1F915098F341
:1008100011D00F920FD00F920DD0A0E826173707F6
:1008200048071B0609F0A048BA2F602D7F918F91D1
:1008300000240895A0E80024621773078407B10517
:1008400028F0621B730B840BB1090A2A660F771F0D
:10085000881FBB1FA69581F7089597FB80D09F370F
:1008600038F0FEE9F91B982F872F762F6B2F05C0E4
:1008700093C09695879577956795F150D0F73EF49C
:1008800090958095709561957F4F8F4F9F4F0895FC
:1008900074D09F3760F40EF07FC09FEB80E877271D
:1008A00066270895869577956795B11D9395963936
:1008B000C8F32EF4BB2319F06F5F7F4F8F4FBB2718
:1008C00027C00ED05EF004C00BD026F001C008D0C7
:1008D00019F020F48FEF089580E0089581E00895E5
:1008E00097FB092E052600F8689430D0E89407FCA1
:1008F00007C0621773078407950721F008F4009476
:100900000794989408959A95BB0F661F771F881FC8
:1009100011249923A1F08823B2F79F3F59F0BB0F10
:1009200048F421F4002011F460FF04C06F5F7F4F92
:100930008F4F9F4F881F9795879597F908952CC0E3
:100940009FEF80EC0895052E092607FA440F551FE6
:100950005F3F79F0AA27A51708F051E04795880F67
:10096000991F9F3F31F0BB27B91708F091E0879599
:1009700008959F919F911124E3CF97FB880F991FB2
:100980009F3F31F0BB27B91708F091E08795089594
:100990009F919F911124D4CF662777278827992785
:1009A0000895D1DF01D0B4CF992339F0552329F030
:1009B0009F575F57950F13F49AF1F1CF91589F3FCE
:1009C000E1F3629FA12D0F92BB27639FA00DB11D84
:1009D000EE27729FA00DB11DEE1FAF93AA27649F53
:1009E000B00DE11D739FB00DE11DAA1F6627829F08
:1009F000B00DE11DA61F5527749FE00DA11D551FC9
:100A0000839FE00DA11D561F849FA00D511D852FB2
:100A10007A2F6E2F1F900F9088231AF4939539F434
:100A20008FCF000C111CBB1F661F771F881F01286A
:020A3000089527
:00000001FF
