:1000000014C02DC02CC02BC02AC029C028C027C0B6
:1000100026C025C024C023C022C021C020C01FC0CC
:100020001EC01DC01CC01BC01AC011241FBECFE5BE
:10003000D2E0DEBFCDBF10E0A0E6B0E0E0E9F7E03F
:1000400002C005900D92A036B107D9F710E0A0E6E6
:10005000B0E001C01D92A036B107E1F760C2D0CF79
:10006000CF93DF93CDB7DEB710923200DF91CF91FF
:100070000895CF93DF93CDB7DEB78FEF8093320033
:10008000DF91CF910895CF93DF93CDB7DEB7269759
:100090000FB6F894DEBF0FBECDBF9A8389838981E6
:1000A0009A8101979C838B8381E090E00B8002C052
:1000B000880F991F0A94E2F7809590959E838D830F
:1000C000909132008D8189238093320026960FB65D
:1000D000F894DEBF0FBECDBFDF91CF910895CF93CF
:1000E000DF93CDB7DEB726970FB6F894DEBF0FBE0D
:1000F000CDBF9A83898389819A8101979C838B8361
:1001000081E090E00B8002C0880F991F0A94E2F70B
:100110009E838D83909132008D81892B8093320054
:1001200026960FB6F894DEBF0FBECDBFDF91CF91FC
:100130000895CF93DF93CDB7DEB762970FB6F894EB
:10014000DEBF0FBECDBF69837A838B839C8381E042
:1001500090E09E838D838D819E81893091050CF086
:1001600053C089819A81AB81BC818F839887A9878D
:10017000BA8720E030E04AE753E46F8178858985CB
:100180009A85BED2DC01CB018D879E87AF87B88B65
:1001900020E030E040E85FE36D857E858F859889BB
:1001A0003FD288230CF005C081E090E09C878B87CC
:1001B00018C020E03FEF4FE757E46D857E858F85BF
:1001C000988931D218160CF003C01C861B8609C012
:1001D0006D857E858F859889EFD1DC01CB019C8769
:1001E0008B878B859C859A8B898B89899A890197C6
:1001F000F1F79A8B898B8D819E8145DF8D819E8160
:1002000001969E838D83A7CF62960FB6F894DEBFCA
:100210000FBECDBFDF91CF910895CF93DF93CDB7C0
:10022000DEB762970FB6F894DEBF0FBECDBF69830D
:100230007A838B839C8388E090E09E838D838D817D
:100240009E8199230CF453C089819A81AB81BC8132
:100250008F839887A987BA8720E030E04AE753E484
:100260006F81788589859A854BD2DC01CB018D879A
:100270009E87AF87B88B20E030E040E85FE36D8574
:100280007E858F859889CCD188230CF005C081E0CC
:1002900090E09C878B8718C020E03FEF4FE757E442
:1002A0006D857E858F859889BED118160CF003C0A8
:1002B0001C861B8609C06D857E858F8598897CD1BB
:1002C000DC01CB019C878B878B859C859A8B898BE6
:1002D00089899A890197F1F79A8B898B8D819E8103
:1002E000FEDE8D819E8101979E838D83A8CF6296CD
:1002F0000FB6F894DEBF0FBECDBFDF91CF9108954A
:10030000CF93DF93CDB7DEB72C970FB6F894DEBF4F
:100310000FBECDBF60E070E088EC92E40ADF80E0C1
:1003200090E0A8E4B2E489839A83AB83BC8320E0A5
:1003300030E04AE753E469817A818B819C81E0D186
:10034000DC01CB018F839887A987BA8720E030E052
:1003500040E85FE36F81788589859A8561D188233C
:100360000CF005C081E090E09E838D8318C020E0F2
:100370003FEF4FE757E46F81788589859A8553D1A0
:1003800018160CF003C01E821D8209C06F8178858B
:1003900089859A8511D1DC01CB019E838D838D8166
:1003A0009E819C878B878B859C850197F1F79C8725
:1003B0008B8760E070E088EC92E42FDF2C960FB61C
:1003C000F894DEBF0FBECDBFDF91CF910895CF93DC
:1003D000DF93CDB7DEB724970FB6F894DEBF0FBE1C
:1003E000CDBF9A83898381E090E09C838B838B814E
:1003F0009C818930910584F42B813C8189819A818B
:10040000821793074CF08B819C813DDE8B819C8110
:1004100001969C838B83EBCF24960FB6F894DEBFB6
:100420000FBECDBFDF91CF910895CF93DF93CDB7AE
:10043000DEB724970FB6F894DEBF0FBECDBF9A8308
:10044000898388E090E09C838B832B813C81898128
:100450009A81281739074CF08B819C8114DE8B819F
:100460009C8101979C838B83F0CF24960FB6F894E0
:10047000DEBF0FBECDBFDF91CF910895CF93DF9345
:10048000CDB7DEB726970FB6F894DEBF0FBECDBF4F
:1004900069837A838B839C8320E030E048EC52E4CC
:1004A00069817A818B819C8141D0DC01CB0120E084
:1004B00030E040E051E4BC01CD0122D1DC01CB01B0
:1004C000BC01CD0194D0DC01CB01BC01CD0174D0C5
:1004D000DC01CB019E838D838D819E8178DF269602
:1004E0000FB6F894DEBF0FBECDBFDF91CF91089558
:1004F000CF93DF93CDB7DEB78FEF80933100B9DDB7
:10050000DF91CF910895CF93DF93CDB7DEB760E051
:1005100070E088EC91E4B2DFDF91CF910895CFE5F0
:10052000D2E0DEBFCDBFE4DFEEDFFECFBBD001D037
:100530009EC0552359F0992369F09F575F57951B2B
:1005400033F442F4903811F4915805C0A8C0915882
:100550009F3F09F4D3C0BB27112462177307840798
:1005600030F4660F771F881FBB1F915098F311D08E
:100570000F920FD00F920DD0A0E82617370748072B
:100580001B0609F0A048BA2F602D7F918F9100249F
:100590000895A0E80024621773078407B10528F0C6
:1005A000621B730B840BB1090A2A660F771F881F21
:1005B000BB1FA69581F7089597FB80D09F3738F031
:1005C000FEE9F91B982F872F762F6B2F05C093C05C
:1005D0009695879577956795F150D0F73EF490956D
:1005E0008095709561957F4F8F4F9F4F089574D080
:1005F0009F3760F40EF07FC09FEB80E87727662777
:100600000895869577956795B11D93959639C8F3AA
:100610002EF4BB2319F06F5F7F4F8F4FBB2727C08E
:100620000ED05EF004C00BD026F001C008D019F047
:1006300020F48FEF089580E0089581E0089597FBFE
:10064000092E052600F8689430D0E89407FC07C00E
:10065000621773078407950721F008F40094079444
:10066000989408959A95BB0F661F771F881F1124D1
:100670009923A1F08823B2F79F3F59F0BB0F48F4AC
:1006800021F4002011F460FF04C06F5F7F4F8F4F93
:100690009F4F881F9795879597F908952CC09FEFD6
:1006A00080EC0895052E092607FA440F551F5F3F79
:1006B00079F0AA27A51708F051E04795880F991FF0
:1006C0009F3F31F0BB27B91708F091E08795089557
:1006D0009F919F911124E3CF97FB880F991F9F3F14
:1006E00031F0BB27B91708F091E0879508959F91E5
:1006F0009F911124D4CF66277727882799270895BB
:10070000D1DF01D0B4CF992339F0552329F09F5779
:100710005F57950F13F49AF1F1CF91589F3FE1F392
:10072000629FA12D0F92BB27639FA00DB11DEE27E5
:10073000729FA00DB11DEE1FAF93AA27649FB00D4D
:10074000E11D739FB00DE11DAA1F6627829FB00DAA
:10075000E11DA61F5527749FE00DA11D551F839F06
:10076000E00DA11D561F849FA00D511D852F7A2FCE
:100770006E2F1F900F9088231AF4939539F48FCF22
:10078000000C111CBB1F661F771F881F01280895CE
:00000001FF
