:1000000014C02DC02CC02BC02AC029C028C027C0B6
:1000100026C025C024C023C022C021C020C01FC0CC
:100020001EC01DC01CC01BC01AC011241FBECFE5BE
:10003000D2E0DEBFCDBF10E0A0E6B0E0E8EBF1E03B
:1000400002C005900D92A036B107D9F710E0A0E6E6
:10005000B0E001C01D92A036B107E1F7A6C0D0CF35
:10006000CF93DF93CDB7DEB710923200DF91CF91FF
:100070000895CF93DF93CDB7DEB78FEF8093320033
:10008000DF91CF910895CF93DF93CDB7DEB7269759
:100090000FB6F894DEBF0FBECDBF9A8389838981E6
:1000A0009A8101979C838B8381E090E00B8002C052
:1000B000880F991F0A94E2F7809590959E838D830F
:1000C000909132008D8189238093320026960FB65D
:1000D000F894DEBF0FBECDBFDF91CF910895CF93CF
:1000E000DF93CDB7DEB726970FB6F894DEBF0FBE0D
:1000F000CDBF9A83898389819A8101979C838B8361
:1001000081E090E00B8002C0880F991F0A94E2F70B
:100110009E838D83909132008D81892B8093320054
:1001200026960FB6F894DEBF0FBECDBFDF91CF91FC
:100130000895CF93DF93CDB7DEB724970FB6F89429
:10014000DEBF0FBECDBF9A83898381E090E09C83A0
:100150008B838B819C81893091054CF48B819C81B0
:1001600092DF8B819C8101969C838B83F2CF2496B6
:100170000FB6F894DEBF0FBECDBFDF91CF910895CB
:10018000CF93DF93CDB7DEB78FEF8093310071DF70
:10019000DF91CF910895CF93DF93CDB7DEB782E3A0
:1001A00090E0C7DFDF91CF910895CFE5D2E0DEBFC9
:0801B000CDBFE6DFF0DFFECF5A
:00000001FF
